RHR001ACCT POSITION  200802142008021500000000AEDMU1440140000001*AMERI*V                                                                                         
APR0010305389000000000AMEFIMMMAAMEF70712312312311         F00000001258130500000001258130500000000000000005088960400000000000000000000000                        
APR002000000000000000000000000000000000000000064026          0000C5389MICHAEL DOUGLAS               00000000000500000000005059004822 U          000000012581305 
APR0010305389000000000AMEFIAMMAAMEF70745645645645         F00000002703739100000002703739100000000000000002182576700000000000000000000000                        
APR002000000000000000000000000000000000000000059011          0000C5389MICHAEL DOUGLAS               00000000000500000000005059004822 U          000000027037391 
APR0010305389000000000AMEFSCOYAAMEF83078978978978         F00000002444639100000002444639100000000000000003642545100000000000000000000000                        
APR002000000000000000000000000000000000000000089047          0000C5389MICHAEL DOUGLAS               00000000000500000000005059004822 U          000000024446391 
APR0010305389000000000AMEFIAMMAAMEF70715615615615         F00000001251165300000001251165300000000000000002481931900000000000000000000000                        
RTR001ACCT POSITION  000000009                                                                                                                                 
