RHR001FINANCIALDIRECT200802152008021800000000AEDMU1170150000001*AMERI*V                                                                                         
DFA0010960305389000000000AMEFIMMMAAMEF70755555555555         F0000000        026002S04965055800000000000001400000000000282020080215200802150000000000010V       
DFA002000000000000000000005014000009213TERRY D BELKE                 000000000000000 000000000000000000000000000000000000000000000005059004822 0                
DFA0010960305389000000000AMEFIAMMAAMEF70744444444444         F0000000        026002S02160353200000000000001200000000000555520080215200802150000000000010V       
DFA002000000000000000000005014000009213TERRY D BELKE                 000000000000000 000000000000000000000000000000000000000000000005059004822 0                
RTR001FINANCIALDIRECT000000006                                                                                                                                  
AMEFIAMMAAMEF707
