RHR001PRICE REFRESHER2008022620080227*AMERI*V                                                                                                                   
FPR001AMEFIMMMAAMEF7072008022600192255000192255000000000000AMERITAS MONEY MARKET (CAMCO)         000000000000000                                                
FPR001AMEFIAMMAAMEF7072008022603626149703626149700000000000FIDELITY VIP ASSET MANAGER            000000000000000                                                
FPR001AMEFIHIMAAMEF7072008022602956639202956639200000000000FIDELITY VIP HIGH INCOME              000000000000000                                                
FPR001AMEFIGRMAAMEF7072008022607025863807025863800000000000FIDELITY VIP GROWTH                   000000000000000                                                
FPR001AMEFIEQMAAMEF7072008022606190681906190681900000000000FIDELITY VIP EQUITY-INCOME            000000000000000                                                
FPR001AMEFIIBMAAMEF7072008022602473577802473577800000000000FIDELITY VIP INVESTMENT GRADE BOND    000000000000000                                                
FPR001AMEFIOSMAAMEF7072008022603790992803790992800000000000FIDELITY VIP OVERSEAS                 000000000000000                                                
FPR001AMEFICOMAAMEF7072008022604545851104545851100000000000FIDELITY VIP CONTRAFUND               000000000000000                                                
FPR001AMEFINDMAAMEF7072008022617066743517066743500000000000AMERITAS INDEX 500 (SSGA)             000000000000000                                                
FPR001AMEFIMGMAAMEF7072008022602467989002467989000000000000FIDELITY VIP ASSET MANAGER: GROWTH    000000000000000                                                
FPR001AMEALGRMAAMEF7072008022606484244806484244800000000000AMERITAS GROWTH (ALGER)               000000000000000                                                
FPR001AMEALIGMAAMEF7072008022604589553504589553500000000000AMERITAS INCOME & GROWTH (SUMMIT)     000000000000000                                                
FPR001AMEALSCMAAMEF7072008022604285559704285559700000000000AMERITAS SMALL CAP (EAGLE)            000000000000000                                                
FPR001AMEALBAMAAMEF7072008022603342896203342896200000000000ALGER BALANCED                        000000000000000                                                
FPR001AMEALMCMAAMEF7072008022606267986906267986900000000000AMERITAS MID CAP GROWTH (ALGER)       000000000000000                                                
FPR001AMEALLAMAAMEF7072008022604004062204004062200000000000ALGER LEVERAGED ALLCAP                000000000000000                                                
FPR001AMEAMCSMAAMEF7072008022602144579802144579800000000000AMERITAS CORE STRATEGIES              000000000000000                                                
FPR001AMEMFUSMAAMEF7072008022605744097705744097700000000000MFS UTILITIES - INITIAL CLASS         000000000000000                                                
FPR001AMEMFWGMAAMEF7072008022601650414501650414500000000000MFS STRATEGIC INCOME - INITIAL CLASS  000000000000000                                                
FPR001AMEMFNDMAAMEF7072008022601651627901651627900000000000MFS NEW DISCOVERY - INITIAL CLASS     000000000000000                                                
FPR001AMEMSEMMAAMEF7072008022602924979202924979200000000000VAN KAMPEN EMERGING MARKETS EQUITY (CL000000000000000                                                
FPR001AMEMSGEMAAMEF7072008022602002359402002359400000000000VAN KAMPEN GLOBAL VALUE EQUITY (CL I) 000000000000000                                                
FPR001AMEMSIMMAAMEF7072008022601683437801683437800000000000VAN KAMPEN INTERNATIONAL MAGNUM (CL I)000000000000000                                                
FPR001AMEMSREMAAMEF7072008022603266323103266323100000000000VAN KAMPEN U S  REAL ESTATE (CL I)    000000000000000                                                
FPR001AMECABAMAAMEF7072008022600229682900229682900000000000CALVERT SOCIAL BALANCED               000000000000000                                                
FPR001AMECASCMAAMEF7072008022601673462901673462900000000000CALVERT SOCIAL SMALL CAP GROWTH       000000000000000                                                
FPR001AMECAMCMAAMEF7072008022603169884103169884100000000000CALVERT SOCIAL MID CAP GROWTH         000000000000000                                                
FPR001AMECAIEMAAMEF7072008022602566646002566646000000000000CALVERT SOCIAL INTERNATIONAL EQUITY   000000000000000                                                
FPR001AMECASEMAAMEF7072008022601893257301893257300000000000CALVERT SOCIAL EQUITY                 000000000000000                                                
FPR001AMECAINMAAMEF7072008022602007791202007791200000000000CALVERT INCOME                        000000000000000                                                
FPR001AMEACIGMAAMEF7072008022600823682300823682300000000000AMERICAN CENTURY VP INCOME & GROWTH   000000000000000                                                
FPR001AMEAMMCMAAMEF7072008022602705895602705895600000000000AMERITAS SMALL COMPANY EQUITY (OFII)  000000000000000                                                
FPR001AMEINDYMAAMEF7072008022601627969301627969300000000000AIM V.I. DYNAMICS                     000000000000000                                                
FPR001AMEAMSLMAAMEF7072008022602409399302409399300000000000AMERITAS MIDCAP VALUE (RiverSource)   000000000000000                                                
FPR001AMESLCPMAAMEF7072008022601684439801684439800000000000SALOMON BROTHERS VARIABLE ALL CAP     000000000000000                                                
FPR001AMESUNIMAAMEF7072008022600460753100460753100000000000SUMMIT NASDAQ-100 INDEX               000000000000000                                                
FPR001AMESURSMAAMEF7072008022601355339801355339800000000000SUMMIT RUSSELL 2000 SMALL CAP INDEX   000000000000000                                                
FPR001AMESUMCMAAMEF7072008022601445201101445201100000000000SUMMIT S&P MIDCAP 400 INDEX           000000000000000                                                
FPR001AMETAVAMAAMEF7072008022602985274602985274600000000000THIRD AVENUE VALUE                    000000000000000                                                
FPR001AMEDRMCMAAMEF7072008022601963000401963000400000000000DREYFUS INVESTMENT PORTFOLIOS - MIDCAP000000000000000                                                
FPR001AMEFIMMMAAMEF8062008022600192255000192255000000000000AMERITAS MONEY MARKET (CAMCO)         000000000000000                                                
FPR001AMEFIAMMAAMEF8062008022603626149703626149700000000000FIDELITY VIP ASSET MANAGER            000000000000000                                                
FPR001AMEFIHIMAAMEF8062008022602956639202956639200000000000FIDELITY VIP HIGH INCOME              000000000000000                                                
FPR001AMEFIGRMAAMEF8062008022607025863807025863800000000000FIDELITY VIP GROWTH                   000000000000000                                                
FPR001AMEFIEQMAAMEF8062008022606190681906190681900000000000FIDELITY VIP EQUITY-INCOME            000000000000000                                                
FPR001AMEFIIBMAAMEF8062008022602473577802473577800000000000FIDELITY VIP INVESTMENT GRADE BOND    000000000000000                                                
FPR001AMEFIOSMAAMEF8062008022603790992803790992800000000000FIDELITY VIP OVERSEAS                 000000000000000                                                
FPR001AMEFICOMAAMEF8062008022604545851104545851100000000000FIDELITY VIP CONTRAFUND               000000000000000                                                
FPR001AMEFINDMAAMEF8062008022617066743517066743500000000000AMERITAS INDEX 500 (SSGA)             000000000000000                                                
FPR001AMEFIMGMAAMEF8062008022602467989002467989000000000000FIDELITY VIP ASSET MANAGER: GROWTH    000000000000000                                                
FPR001AMEALGRMAAMEF8062008022606484244806484244800000000000AMERITAS GROWTH (ALGER)               000000000000000                                                
FPR001AMEALIGMAAMEF8062008022604589553504589553500000000000AMERITAS INCOME & GROWTH (SUMMIT)     000000000000000                                                
FPR001AMEALSCMAAMEF8062008022604285559704285559700000000000AMERITAS SMALL CAP (EAGLE)            000000000000000                                                
FPR001AMEALBAMAAMEF8062008022603342896203342896200000000000ALGER BALANCED                        000000000000000                                                
FPR001AMEALMCMAAMEF8062008022606267986906267986900000000000AMERITAS MID CAP GROWTH (ALGER)       000000000000000                                                
FPR001AMEALLAMAAMEF8062008022604004062204004062200000000000ALGER LEVERAGED ALLCAP                000000000000000                                                
FPR001AMEAMCSMAAMEF8062008022602144579802144579800000000000AMERITAS CORE STRATEGIES              000000000000000                                                
FPR001AMEMFUSMAAMEF8062008022605744097705744097700000000000MFS UTILITIES - INITIAL CLASS         000000000000000                                                
FPR001AMEMFWGMAAMEF8062008022601650414501650414500000000000MFS STRATEGIC INCOME - INITIAL CLASS  000000000000000                                                
FPR001AMEMFNDMAAMEF8062008022601651627901651627900000000000MFS NEW DISCOVERY - INITIAL CLASS     000000000000000                                                
FPR001AMEMSEMMAAMEF8062008022602924979202924979200000000000VAN KAMPEN EMERGING MARKETS EQUITY (CL000000000000000                                                
FPR001AMEMSGEMAAMEF8062008022602002359402002359400000000000VAN KAMPEN GLOBAL VALUE EQUITY (CL I) 000000000000000                                                
FPR001AMEMSIMMAAMEF8062008022601683437801683437800000000000VAN KAMPEN INTERNATIONAL MAGNUM (CL I)000000000000000                                                
FPR001AMEMSREMAAMEF8062008022603266323103266323100000000000VAN KAMPEN U S  REAL ESTATE (CL I)    000000000000000                                                
FPR001AMECABAMAAMEF8062008022600229682900229682900000000000CALVERT SOCIAL BALANCED               000000000000000                                                
FPR001AMECASCMAAMEF8062008022601673462901673462900000000000CALVERT SOCIAL SMALL CAP GROWTH       000000000000000                                                
FPR001AMECAMCMAAMEF8062008022603169884103169884100000000000CALVERT SOCIAL MID CAP GROWTH         000000000000000                                                
FPR001AMECAIEMAAMEF8062008022602566646002566646000000000000CALVERT SOCIAL INTERNATIONAL EQUITY   000000000000000                                                
FPR001AMECASEMAAMEF8062008022601893257301893257300000000000CALVERT SOCIAL EQUITY                 000000000000000                                                
FPR001AMECAINMAAMEF8062008022602007791202007791200000000000CALVERT INCOME                        000000000000000                                                
FPR001AMEACIGMAAMEF8062008022600823682300823682300000000000AMERICAN CENTURY VP INCOME & GROWTH   000000000000000                                                
FPR001AMEAMMCMAAMEF8062008022602705895602705895600000000000AMERITAS SMALL COMPANY EQUITY (OFII)  000000000000000                                                
FPR001AMEINDYMAAMEF8062008022601627969301627969300000000000AIM V.I. DYNAMICS                     000000000000000                                                
FPR001AMEAMSLMAAMEF8062008022602409399302409399300000000000AMERITAS MIDCAP VALUE (RiverSource)   000000000000000                                                
FPR001AMESLCPMAAMEF8062008022601684439801684439800000000000SALOMON BROTHERS VARIABLE ALL CAP     000000000000000                                                
FPR001AMESUNIMAAMEF8062008022600460753100460753100000000000SUMMIT NASDAQ-100 INDEX               000000000000000                                                
FPR001AMESURSMAAMEF8062008022601355339801355339800000000000SUMMIT RUSSELL 2000 SMALL CAP INDEX   000000000000000                                                
FPR001AMESUMCMAAMEF8062008022601445201101445201100000000000SUMMIT S&P MIDCAP 400 INDEX           000000000000000                                                
FPR001AMETAVAMAAMEF8062008022602985274602985274600000000000THIRD AVENUE VALUE                    000000000000000                                                
FPR001AMEDRMCMAAMEF8062008022601963000401963000400000000000DREYFUS INVESTMENT PORTFOLIOS - MIDCAP000000000000000                                                
FPR001AMEFIMMMAAMEF8892008022600192255000192255000000000000AMERITAS MONEY MARKET (CAMCO)         000000000000000                                                
FPR001AMEFIAMMAAMEF8892008022603626149703626149700000000000FIDELITY VIP ASSET MANAGER            000000000000000                                                
FPR001AMEFIHIMAAMEF8892008022602956639202956639200000000000FIDELITY VIP HIGH INCOME              000000000000000                                                
FPR001AMEFIGRMAAMEF8892008022607025863807025863800000000000FIDELITY VIP GROWTH                   000000000000000                                                
FPR001AMEFIEQMAAMEF8892008022606190681906190681900000000000FIDELITY VIP EQUITY-INCOME            000000000000000                                                
FPR001AMEFIIBMAAMEF8892008022602473577802473577800000000000FIDELITY VIP INVESTMENT GRADE BOND    000000000000000                                                
FPR001AMEFIOSMAAMEF8892008022603790992803790992800000000000FIDELITY VIP OVERSEAS                 000000000000000                                                
FPR001AMEFICOMAAMEF8892008022604545851104545851100000000000FIDELITY VIP CONTRAFUND               000000000000000                                                
FPR001AMEFINDMAAMEF8892008022617066743517066743500000000000AMERITAS INDEX 500 (SSGA)             000000000000000                                                
FPR001AMEFIMGMAAMEF8892008022602467989002467989000000000000FIDELITY VIP ASSET MANAGER: GROWTH    000000000000000                                                
FPR001AMEALGRMAAMEF8892008022606484244806484244800000000000AMERITAS GROWTH (ALGER)               000000000000000                                                
FPR001AMEALIGMAAMEF8892008022604589553504589553500000000000AMERITAS INCOME & GROWTH (SUMMIT)     000000000000000                                                
FPR001AMEALSCMAAMEF8892008022604285559704285559700000000000AMERITAS SMALL CAP (EAGLE)            000000000000000                                                
FPR001AMEALBAMAAMEF8892008022603342896203342896200000000000ALGER BALANCED                        000000000000000                                                
FPR001AMEALMCMAAMEF8892008022606267986906267986900000000000AMERITAS MID CAP GROWTH (ALGER)       000000000000000                                                
FPR001AMEALLAMAAMEF8892008022604004062204004062200000000000ALGER LEVERAGED ALLCAP                000000000000000                                                
FPR001AMEAMCSMAAMEF8892008022602144579802144579800000000000AMERITAS CORE STRATEGIES              000000000000000                                                
FPR001AMEMFUSMAAMEF8892008022605744097705744097700000000000MFS UTILITIES - INITIAL CLASS         000000000000000                                                
FPR001AMEMFWGMAAMEF8892008022601650414501650414500000000000MFS STRATEGIC INCOME - INITIAL CLASS  000000000000000                                                
FPR001AMEMFNDMAAMEF8892008022601651627901651627900000000000MFS NEW DISCOVERY - INITIAL CLASS     000000000000000                                                
FPR001AMEMSEMMAAMEF8892008022602924979202924979200000000000VAN KAMPEN EMERGING MARKETS EQUITY (CL000000000000000                                                
FPR001AMEMSGEMAAMEF8892008022602002359402002359400000000000VAN KAMPEN GLOBAL VALUE EQUITY (CL I) 000000000000000                                                
FPR001AMEMSIMMAAMEF8892008022601683437801683437800000000000VAN KAMPEN INTERNATIONAL MAGNUM (CL I)000000000000000                                                
FPR001AMEMSREMAAMEF8892008022603266323103266323100000000000VAN KAMPEN U S  REAL ESTATE (CL I)    000000000000000                                                
FPR001AMECABAMAAMEF8892008022600229682900229682900000000000CALVERT SOCIAL BALANCED               000000000000000                                                
FPR001AMECASCMAAMEF8892008022601673462901673462900000000000CALVERT SOCIAL SMALL CAP GROWTH       000000000000000                                                
FPR001AMECAMCMAAMEF8892008022603169884103169884100000000000CALVERT SOCIAL MID CAP GROWTH         000000000000000                                                
FPR001AMECAIEMAAMEF8892008022602566646002566646000000000000CALVERT SOCIAL INTERNATIONAL EQUITY   000000000000000                                                
FPR001AMECASEMAAMEF8892008022601893257301893257300000000000CALVERT SOCIAL EQUITY                 000000000000000                                                
FPR001AMECAINMAAMEF8892008022602007791202007791200000000000CALVERT INCOME                        000000000000000                                                
FPR001AMEACIGMAAMEF8892008022600823682300823682300000000000AMERICAN CENTURY VP INCOME & GROWTH   000000000000000                                                
FPR001AMEAMMCMAAMEF8892008022602705895602705895600000000000AMERITAS SMALL COMPANY EQUITY (OFII)  000000000000000                                                
FPR001AMEINDYMAAMEF8892008022601627969301627969300000000000AIM V.I. DYNAMICS                     000000000000000                                                
FPR001AMEAMSLMAAMEF8892008022602409399302409399300000000000AMERITAS MIDCAP VALUE (RiverSource)   000000000000000                                                
FPR001AMESLCPMAAMEF8892008022601684439801684439800000000000SALOMON BROTHERS VARIABLE ALL CAP     000000000000000                                                
FPR001AMESUNIMAAMEF8892008022600460753100460753100000000000SUMMIT NASDAQ-100 INDEX               000000000000000                                                
FPR001AMESURSMAAMEF8892008022601355339801355339800000000000SUMMIT RUSSELL 2000 SMALL CAP INDEX   000000000000000                                                
FPR001AMESUMCMAAMEF8892008022601445201101445201100000000000SUMMIT S&P MIDCAP 400 INDEX           000000000000000                                                
FPR001AMETAVAMAAMEF8892008022602985274602985274600000000000THIRD AVENUE VALUE                    000000000000000                                                
FPR001AMEDRMCMAAMEF8892008022601963000401963000400000000000DREYFUS INVESTMENT PORTFOLIOS - MIDCAP000000000000000                                                
FPR001AMEFIMMNAAMEF8712008022600134553900134553900000000000AMERITAS MONEY MARKET (CAMCO)         000000000000000                                                
FPR001AMEFIAMNAAMEF8712008022602932045602932045600000000000FIDELITY VIP ASSET MANAGER            000000000000000                                                
FPR001AMEFIHINAAMEF8712008022601463163801463163800000000000FIDELITY VIP HIGH INCOME              000000000000000                                                
FPR001AMEFIGRNAAMEF8712008022605813827705813827700000000000FIDELITY VIP GROWTH                   000000000000000                                                
FPR001AMEFIEQNAAMEF8712008022604146360704146360700000000000FIDELITY VIP EQUITY-INCOME            000000000000000                                                
FPR001AMEFIIBNAAMEF8712008022601987099901987099900000000000FIDELITY VIP INVESTMENT GRADE BOND    000000000000000                                                
FPR001AMEFIOSNAAMEF8712008022603670208803670208800000000000FIDELITY VIP OVERSEAS                 000000000000000                                                
FPR001AMEFICONAAMEF8712008022604404593904404593900000000000FIDELITY VIP CONTRAFUND               000000000000000                                                
FPR001AMEFINDNAAMEF8712008022616198502416198502400000000000AMERITAS INDEX 500 (SSGA)             000000000000000                                                
FPR001AMEFIMGNAAMEF8712008022602274109902274109900000000000FIDELITY VIP ASSET MANAGER: GROWTH    000000000000000                                                
FPR001AMEALGRNAAMEF8712008022606121736906121736900000000000AMERITAS GROWTH (ALGER)               000000000000000                                                
FPR001AMEALIGNAAMEF8712008022604421179404421179400000000000AMERITAS INCOME & GROWTH (SUMMIT)     000000000000000                                                
FPR001AMEALSCNAAMEF8712008022604086626904086626900000000000AMERITAS SMALL CAP (EAGLE)            000000000000000                                                
FPR001AMEALBANAAMEF8712008022603257725403257725400000000000ALGER BALANCED                        000000000000000                                                
FPR001AMEALMCNAAMEF8712008022606389521906389521900000000000AMERITAS MID CAP GROWTH (ALGER)       000000000000000                                                
FPR001AMEALLANAAMEF8712008022603981007103981007100000000000ALGER LEVERAGED ALLCAP                000000000000000                                                
FPR001AMEAMCSNAAMEF8712008022602064918202064918200000000000AMERITAS CORE STRATEGIES              000000000000000                                                
FPR001AMEMFUSNAAMEF8712008022605339983905339983900000000000MFS UTILITIES - INITIAL CLASS         000000000000000                                                
FPR001AMEMFWGNAAMEF8712008022601482804901482804900000000000MFS STRATEGIC INCOME - INITIAL CLASS  000000000000000                                                
FPR001AMEMFNDNAAMEF8712008022601630663301630663300000000000MFS NEW DISCOVERY - INITIAL CLASS     000000000000000                                                
FPR001AMEMSEMNAAMEF8712008022602877397802877397800000000000VAN KAMPEN EMERGING MARKETS EQUITY (CL000000000000000                                                
FPR001AMEMSGENAAMEF8712008022601970371501970371500000000000VAN KAMPEN GLOBAL VALUE EQUITY (CL I) 000000000000000                                                
FPR001AMEMSIMNAAMEF8712008022601656803501656803500000000000VAN KAMPEN INTERNATIONAL MAGNUM (CL I)000000000000000                                                
FPR001AMEMSRENAAMEF8712008022603213944903213944900000000000VAN KAMPEN U S  REAL ESTATE (CL I)    000000000000000                                                
FPR001AMECABANAAMEF8712008022600226843200226843200000000000CALVERT SOCIAL BALANCED               000000000000000                                                
FPR001AMECASCNAAMEF8712008022601656503301656503300000000000CALVERT SOCIAL SMALL CAP GROWTH       000000000000000                                                
FPR001AMECAMCNAAMEF8712008022603129352403129352400000000000CALVERT SOCIAL MID CAP GROWTH         000000000000000                                                
FPR001AMECAIENAAMEF8712008022602539111202539111200000000000CALVERT SOCIAL INTERNATIONAL EQUITY   000000000000000                                                
FPR001AMECASENAAMEF8712008022601875284001875284000000000000CALVERT SOCIAL EQUITY                 000000000000000                                                
FPR001AMECAINNAAMEF8712008022601990134501990134500000000000CALVERT INCOME                        000000000000000                                                
FPR001AMEACIGNAAMEF8712008022600819226000819226000000000000AMERICAN CENTURY VP INCOME & GROWTH   000000000000000                                                
FPR001AMEAMMCNAAMEF8712008022602667944402667944400000000000AMERITAS SMALL COMPANY EQUITY (OFII)  000000000000000                                                
FPR001AMEINDYNAAMEF8712008022601655223801655223800000000000AIM V.I. DYNAMICS                     000000000000000                                                
FPR001AMEAMSLNAAMEF8712008022602374457002374457000000000000AMERITAS MIDCAP VALUE (RiverSource)   000000000000000                                                
FPR001AMESLCPNAAMEF8712008022601666498101666498100000000000SALOMON BROTHERS VARIABLE ALL CAP     000000000000000                                                
FPR001AMESUNINAAMEF8712008022600454071900454071900000000000SUMMIT NASDAQ-100 INDEX               000000000000000                                                
FPR001AMESURSNAAMEF8712008022601400385601400385600000000000SUMMIT RUSSELL 2000 SMALL CAP INDEX   000000000000000                                                
FPR001AMESUMCNAAMEF8712008022601790455601790455600000000000SUMMIT S&P MIDCAP 400 INDEX           000000000000000                                                
FPR001AMETAVANAAMEF8712008022602941721102941721100000000000THIRD AVENUE VALUE                    000000000000000                                                
FPR001AMEDRMCNAAMEF8712008022601948782901948782900000000000DREYFUS INVESTMENT PORTFOLIOS - MIDCAP000000000000000                                                
FPR001AMEFIMMPAAMEF6082008022600123703100123703100000000000AMERITAS MONEY MARKET (CAMCO)         000000000000000                                                
FPR001AMEFIAMPAAMEF6082008022602334585602334585600000000000FIDELITY VIP ASSET MANAGER            000000000000000                                                
FPR001AMEFIHIPAAMEF6082008022601232064801232064800000000000FIDELITY VIP HIGH INCOME              000000000000000                                                
FPR001AMEFIGRPAAMEF6082008022605013570205013570200000000000FIDELITY VIP GROWTH                   000000000000000                                                
FPR001AMEFIEQPAAMEF6082008022603612779203612779200000000000FIDELITY VIP EQUITY-INCOME            000000000000000                                                
FPR001AMEFIIBPAAMEF6082008022601826791201826791200000000000FIDELITY VIP INVESTMENT GRADE BOND    000000000000000                                                
FPR001AMEFIOSPAAMEF6082008022603176107103176107100000000000FIDELITY VIP OVERSEAS                 000000000000000                                                
FPR001AMEFICOPAAMEF6082008022604151510404151510400000000000FIDELITY VIP CONTRAFUND               000000000000000                                                
FPR001AMEFINDPAAMEF6082008022615537038515537038500000000000AMERITAS INDEX 500 (SSGA)             000000000000000                                                
FPR001AMEFIMGPAAMEF6082008022601975078801975078800000000000FIDELITY VIP ASSET MANAGER: GROWTH    000000000000000                                                
FPR001AMEALGRPAAMEF6082008022605098082905098082900000000000AMERITAS GROWTH (ALGER)               000000000000000                                                
FPR001AMEALIGPAAMEF6082008022601555970901555970900000000000AMERITAS INCOME & GROWTH (SUMMIT)     000000000000000                                                
FPR001AMEALSCPAAMEF6082008022603507915903507915900000000000AMERITAS SMALL CAP (EAGLE)            000000000000000                                                
FPR001AMEALBAPAAMEF6082008022601842105301842105300000000000ALGER BALANCED                        000000000000000                                                
FPR001AMEALMCPAAMEF6082008022605841952005841952000000000000AMERITAS MID CAP GROWTH (ALGER)       000000000000000                                                
FPR001AMEALLAPAAMEF6082008022603881721903881721900000000000ALGER LEVERAGED ALLCAP                000000000000000                                                
FPR001AMEAMCSPAAMEF6082008022602092566902092566900000000000AMERITAS CORE STRATEGIES              000000000000000                                                
FPR001AMEMFUSPAAMEF6082008022604707923904707923900000000000MFS UTILITIES - INITIAL CLASS         000000000000000                                                
FPR001AMEMFWGPAAMEF6082008022601479181501479181500000000000MFS STRATEGIC INCOME - INITIAL CLASS  000000000000000                                                
FPR001AMEMFNDPAAMEF6082008022601630891901630891900000000000MFS NEW DISCOVERY - INITIAL CLASS     000000000000000                                                
FPR001AMEMSEMPAAMEF6082008022602813860002813860000000000000VAN KAMPEN EMERGING MARKETS EQUITY (CL000000000000000                                                
FPR001AMEMSGEPAAMEF6082008022601951832901951832900000000000VAN KAMPEN GLOBAL VALUE EQUITY (CL I) 000000000000000                                                
FPR001AMEMSIMPAAMEF6082008022601617622701617622700000000000VAN KAMPEN INTERNATIONAL MAGNUM (CL I)000000000000000                                                
FPR001AMEMSREPAAMEF6082008022603119864503119864500000000000VAN KAMPEN U S  REAL ESTATE (CL I)    000000000000000                                                
FPR001AMECABAPAAMEF6082008022600227930000227930000000000000CALVERT SOCIAL BALANCED               000000000000000                                                
FPR001AMECASCPAAMEF6082008022601655348301655348300000000000CALVERT SOCIAL SMALL CAP GROWTH       000000000000000                                                
FPR001AMECAMCPAAMEF6082008022603128833303128833300000000000CALVERT SOCIAL MID CAP GROWTH         000000000000000                                                
FPR001AMECAIEPAAMEF6082008022602531651502531651500000000000CALVERT SOCIAL INTERNATIONAL EQUITY   000000000000000                                                
FPR001AMECASEPAAMEF6082008022601873625201873625200000000000CALVERT SOCIAL EQUITY                 000000000000000                                                
FPR001AMECAINPAAMEF6082008022601992708101992708100000000000CALVERT INCOME                        000000000000000                                                
FPR001AMEACIGPAAMEF6082008022600813411400813411400000000000AMERICAN CENTURY VP INCOME & GROWTH   000000000000000                                                
FPR001AMEAMMCPAAMEF6082008022602670134702670134700000000000AMERITAS SMALL COMPANY EQUITY (OFII)  000000000000000                                                
FPR001AMEINDYPAAMEF6082008022601622126501622126500000000000AIM V.I. DYNAMICS                     000000000000000                                                
FPR001AMEAMSLPAAMEF6082008022602375643202375643200000000000AMERITAS MIDCAP VALUE (RiverSource)   000000000000000                                                
FPR001AMESLCPPAAMEF6082008022601666496101666496100000000000SALOMON BROTHERS VARIABLE ALL CAP     000000000000000                                                
FPR001AMESUNIPAAMEF6082008022600454142500454142500000000000SUMMIT NASDAQ-100 INDEX               000000000000000                                                
FPR001AMESURSPAAMEF6082008022601341266401341266400000000000SUMMIT RUSSELL 2000 SMALL CAP INDEX   000000000000000                                                
FPR001AMESUMCPAAMEF6082008022601793104001793104000000000000SUMMIT S&P MIDCAP 400 INDEX           000000000000000                                                
FPR001AMETAVAPAAMEF6082008022602943333202943333200000000000THIRD AVENUE VALUE                    000000000000000                                                
FPR001AMEDRMCPAAMEF6082008022601949805501949805500000000000DREYFUS INVESTMENT PORTFOLIOS - MIDCAP000000000000000                                                
FPR001AMEFIMMRAAMEF5092008022600129437900129437900000000000AMERITAS MONEY MARKET (CAMCO)         000000000000000                                                
FPR001AMEFSAMRAAMEF5092008022602405686902405686900000000000FIDELITY VIP ASSET MANAGER (SVC CL)   000000000000000                                                
FPR001AMEFSHIRAAMEF5092008022601273084901273084900000000000FIDELITY VIP HIGH INCOME (SVC CL)     000000000000000                                                
FPR001AMEFSGRRAAMEF5092008022605178990105178990100000000000FIDELITY VIP GROWTH (SVC CL)          000000000000000                                                
FPR001AMEFSEQRAAMEF5092008022603731159003731159000000000000FIDELITY VIP EQUITY-INCOME (SVC CL)   000000000000000                                                
FPR001AMEFIIBRAAMEF5092008022601906541301906541300000000000FIDELITY VIP INVESTMENT GRADE BOND    000000000000000                                                
FPR001AMEFSOSRAAMEF5092008022603308731303308731300000000000FIDELITY VIP OVERSEAS (SVC CL)        000000000000000                                                
FPR001AMEFSCORAAMEF5092008022604290099204290099200000000000FIDELITY VIP CONTRAFUND (SVC CL)      000000000000000                                                
FPR001AMEFINDRAAMEF5092008022616215184616215184600000000000AMERITAS INDEX 500 (SSGA)             000000000000000                                                
FPR001AMEFSMGRAAMEF5092008022602033256402033256400000000000FIDELITY VIP ASSET MGR: GROWTH (SVC CL000000000000000                                                
FPR001AMEALGRRAAMEF5092008022605275557105275557100000000000AMERITAS GROWTH (ALGER)               000000000000000                                                
FPR001AMEALIGRAAMEF5092008022601624548901624548900000000000AMERITAS INCOME & GROWTH (SUMMIT)     000000000000000                                                
FPR001AMEALSCRAAMEF5092008022603660149503660149500000000000AMERITAS SMALL CAP (EAGLE)            000000000000000                                                
FPR001AMEALBARAAMEF5092008022601921477401921477400000000000ALGER BALANCED                        000000000000000                                                
FPR001AMEALMCRAAMEF5092008022606089326006089326000000000000AMERITAS MID CAP GROWTH (ALGER)       000000000000000                                                
FPR001AMEALLARAAMEF5092008022604011476504011476500000000000ALGER LEVERAGED ALLCAP                000000000000000                                                
FPR001AMEAMCSRAAMEF5092008022602183975902183975900000000000AMERITAS CORE STRATEGIES              000000000000000                                                
FPR001AMEMFUSRAAMEF5092008022604914880004914880000000000000MFS UTILITIES - INITIAL CLASS         000000000000000                                                
FPR001AMEMFWGRAAMEF5092008022601536211901536211900000000000MFS STRATEGIC INCOME - INITIAL CLASS  000000000000000                                                
FPR001AMEMFNDRAAMEF5092008022601692884301692884300000000000MFS NEW DISCOVERY - INITIAL CLASS     000000000000000                                                
FPR001AMEMSEMRAAMEF5092008022602936458602936458600000000000VAN KAMPEN EMERGING MARKETS EQUITY (CL000000000000000                                                
FPR001AMEMSGERAAMEF5092008022602045389102045389100000000000VAN KAMPEN GLOBAL VALUE EQUITY (CL I) 000000000000000                                                
FPR001AMEMSIMRAAMEF5092008022601694783501694783500000000000VAN KAMPEN INTERNATIONAL MAGNUM (CL I)000000000000000                                                
FPR001AMEMSRERAAMEF5092008022603254891103254891100000000000VAN KAMPEN U S  REAL ESTATE (CL I)    000000000000000                                                
FPR001AMECABARAAMEF5092008022600234743700234743700000000000CALVERT SOCIAL BALANCED               000000000000000                                                
FPR001AMECASCRAAMEF5092008022601710450901710450900000000000CALVERT SOCIAL SMALL CAP GROWTH       000000000000000                                                
FPR001AMECAMCRAAMEF5092008022603239796603239796600000000000CALVERT SOCIAL MID CAP GROWTH         000000000000000                                                
FPR001AMECAIERAAMEF5092008022602628621002628621000000000000CALVERT SOCIAL INTERNATIONAL EQUITY   000000000000000                                                
FPR001AMECASERAAMEF5092008022601920818801920818800000000000CALVERT SOCIAL EQUITY                 000000000000000                                                
FPR001AMECAINRAAMEF5092008022602043135902043135900000000000CALVERT INCOME                        000000000000000                                                
FPR001AMEACIGRAAMEF5092008022600845838700845838700000000000AMERICAN CENTURY VP INCOME & GROWTH   000000000000000                                                
FPR001AMEAMMCRAAMEF5092008022602754403602754403600000000000AMERITAS SMALL COMPANY EQUITY (OFII)  000000000000000                                                
FPR001AMEINDYRAAMEF5092008022601712891801712891800000000000AIM V.I. DYNAMICS                     000000000000000                                                
FPR001AMEAMSLRAAMEF5092008022602452456902452456900000000000AMERITAS MIDCAP VALUE (RiverSource)   000000000000000                                                
FPR001AMESLCPRAAMEF5092008022601703172401703172400000000000SALOMON BROTHERS VARIABLE ALL CAP     000000000000000                                                
FPR001AMESUNIRAAMEF5092008022600468805000468805000000000000SUMMIT NASDAQ-100 INDEX               000000000000000                                                
FPR001AMESURSRAAMEF5092008022601445405801445405800000000000SUMMIT RUSSELL 2000 SMALL CAP INDEX   000000000000000                                                
FPR001AMESUMCRAAMEF5092008022601848473001848473000000000000SUMMIT S&P MIDCAP 400 INDEX           000000000000000                                                
FPR001AMETAVARAAMEF5092008022603037626803037626800000000000THIRD AVENUE VALUE                    000000000000000                                                
FPR001AMEDRMCRAAMEF5092008022601995852901995852900000000000DREYFUS INVESTMENT PORTFOLIOS - MIDCAP000000000000000                                                
FPR001AMEFIMMYAAMEF8302008022600116178500116178500000000000AMERITAS MONEY MARKET (CAMCO)         000000000000000                                                
FPR001AMEFSAMYAAMEF8302008022601923340601923340600000000000FIDELITY VIP ASSET MANAGER (SVC CL 2) 000000000000000                                                
FPR001AMEFSHIYAAMEF8302008022600980229500980229500000000000FIDELITY VIP HIGH INCOME (SVC CL 2)   000000000000000                                                
FPR001AMEFSGRYAAMEF8302008022603941566203941566200000000000FIDELITY VIP GROWTH (SVC CL 2)        000000000000000                                                
FPR001AMEFSEQYAAMEF8302008022603122508803122508800000000000FIDELITY VIP EQUITY-INCOME (SVC CL 2) 000000000000000                                                
FPR001AMEFSIBYAAMEF8302008022601613428801613428800000000000FIDELITY VIP INVEST GRADE BOND (SVC CL000000000000000                                                
FPR001AMEFSOSYAAMEF8302008022602586318602586318600000000000FIDELITY VIP OVERSEAS (SVC CL 2)      000000000000000                                                
FPR001AMEFSCOYAAMEF8302008022603678779303678779300000000000FIDELITY VIP CONTRAFUND (SVC CL 2)    000000000000000                                                
FPR001AMEFINDYAAMEF8302008022616224381216224381200000000000AMERITAS INDEX 500 (SSGA)             000000000000000                                                
FPR001AMEFSMGYAAMEF8302008022601640497501640497500000000000FIDELITY VIP ASSET MGR: GROWTH (SVC CL000000000000000                                                
FPR001AMEALGRYAAMEF8302008022604929894304929894300000000000AMERITAS GROWTH (ALGER)               000000000000000                                                
FPR001AMEALIGYAAMEF8302008022601468557801468557800000000000AMERITAS INCOME & GROWTH (SUMMIT)     000000000000000                                                
FPR001AMEALSCYAAMEF8302008022603272954803272954800000000000AMERITAS SMALL CAP (EAGLE)            000000000000000                                                
FPR001AMEALBAYAAMEF8302008022601681970001681970000000000000ALGER BALANCED                        000000000000000                                                
FPR001AMEALMCYAAMEF8302008022605091990305091990300000000000AMERITAS MID CAP GROWTH (ALGER)       000000000000000                                                
FPR001AMEALLAYAAMEF8302008022603443188503443188500000000000ALGER LEVERAGED ALLCAP                000000000000000                                                
FPR001AMEAMCSYAAMEF8302008022602214560302214560300000000000AMERITAS CORE STRATEGIES              000000000000000                                                
FPR001AMEMFUSYAAMEF8302008022604326677804326677800000000000MFS UTILITIES - INITIAL CLASS         000000000000000                                                
FPR001AMEMFWGYAAMEF8302008022601433354101433354100000000000MFS STRATEGIC INCOME - INITIAL CLASS  000000000000000                                                
FPR001AMEMFNDYAAMEF8302008022601669488301669488300000000000MFS NEW DISCOVERY - INITIAL CLASS     000000000000000                                                
FPR001AMEMSEMYAAMEF8302008022602539498502539498500000000000VAN KAMPEN EMERGING MARKETS EQUITY (CL000000000000000                                                
FPR001AMEMSGEYAAMEF8302008022601809417901809417900000000000VAN KAMPEN GLOBAL VALUE EQUITY (CL I) 000000000000000                                                
FPR001AMEMSIMYAAMEF8302008022601676541001676541000000000000VAN KAMPEN INTERNATIONAL MAGNUM (CL I)000000000000000                                                
FPR001AMEMSREYAAMEF8302008022603038294303038294300000000000VAN KAMPEN U S  REAL ESTATE (CL I)    000000000000000                                                
FPR001AMECABAYAAMEF8302008022600227788800227788800000000000CALVERT SOCIAL BALANCED               000000000000000                                                
FPR001AMECASCYAAMEF8302008022601676819801676819800000000000CALVERT SOCIAL SMALL CAP GROWTH       000000000000000                                                
FPR001AMECAMCYAAMEF8302008022603057232403057232400000000000CALVERT SOCIAL MID CAP GROWTH         000000000000000                                                
FPR001AMECAIEYAAMEF8302008022602446566402446566400000000000CALVERT SOCIAL INTERNATIONAL EQUITY   000000000000000                                                
FPR001AMECASEYAAMEF8302008022601937695101937695100000000000CALVERT SOCIAL EQUITY                 000000000000000                                                
FPR001AMECAINYAAMEF8302008022602061905502061905500000000000CALVERT INCOME                        000000000000000                                                
FPR001AMEACIGYAAMEF8302008022600855741100855741100000000000AMERICAN CENTURY VP INCOME & GROWTH   000000000000000                                                
FPR001AMEAMMCYAAMEF8302008022602787164102787164100000000000AMERITAS SMALL COMPANY EQUITY (OFII)  000000000000000                                                
FPR001AMEINDYYAAMEF8302008022601703249801703249800000000000AIM V.I. DYNAMICS                     000000000000000                                                
FPR001AMEAMSLYAAMEF8302008022602481915102481915100000000000AMERITAS MIDCAP VALUE (RiverSource)   000000000000000                                                
FPR001AMESLCPYAAMEF8302008022601717743801717743800000000000SALOMON BROTHERS VARIABLE ALL CAP     000000000000000                                                
FPR001AMESUNIYAAMEF8302008022600475041000475041000000000000SUMMIT NASDAQ-100 INDEX               000000000000000                                                
FPR001AMESURSYAAMEF8302008022601397113901397113900000000000SUMMIT RUSSELL 2000 SMALL CAP INDEX   000000000000000                                                
FPR001AMESUMCYAAMEF8302008022601871196701871196700000000000SUMMIT S&P MIDCAP 400 INDEX           000000000000000                                                
FPR001AMETAVAYAAMEF8302008022603075270103075270100000000000THIRD AVENUE VALUE                    000000000000000                                                
FPR001AMEDRMCYAAMEF8302008022602012269802012269800000000000DREYFUS INVESTMENT PORTFOLIOS - MIDCAP000000000000000                                                
FPR001AMEFIMMUAAMEW1002008022600100000000100000000000000000AMERITAS MONEY MARKET (CAMCO)         000000000000000                                                
FPR001AMEFSHIUAAMEW1002008022600574000000574000000000000000FIDELITY HIGH INCOME (SVC CL 2)       000000000000000                                                
FPR001AMEFSGRUAAMEW1002008022603815101303815101300000000000FIDELITY GROWTH (SVC CL 2)            000000000000000                                                
FPR001AMEFSEQUAAMEW1002008022602239000002239000000000000000FIDELITY EQUITY-INCOME (SVC CL 2)     000000000000000                                                
FPR001AMEFSIBUAAMEW1002008022601204000001204000000000000000FIDELITY INVEST GRADE BOND (SVC CL 2) 000000000000000                                                
FPR001AMEFSOSUAAMEW1002008022602097000002097000000000000000FIDELITY OVERSEAS (SVC CL 2)          000000000000000                                                
FPR001AMEFSCOUAAMEW1002008022602468000002468000000000000000FIDELITY CONTRAFUND (SVC CL 2)        000000000000000                                                
FPR001AMEFINDUAAMEW1002008022601000000001000000000000000000AMERITAS INDEX 500 (SSGA)             000000000000000                                                
FPR001AMEALSCUAAMEW1002008022601000000001000000000000000000AMERITAS SMALL CAP (MCSTAY)           000000000000000                                                
FPR001AMEALMCUAAMEW1002008022603418000003418000000000000000AMERITAS MID CAP GROWTH (ALGER)       000000000000000                                                
FPR001AMEAMCSUAAMEW1002008022602089369002089369000000000000AMERITAS CORE STRATEGIES              000000000000000                                                
FPR001AMECABAUAAMEW1002008022600184900000184900000000000000CALVERT SOCIAL BALANCED               000000000000000                                                
FPR001AMEACIGUAAMEW1002008022601000000001000000000000000000AMERICAN CENTURY VP INCOME & GROWTH   000000000000000                                                
FPR001AMESURSUAAMEW1002008022601000000001000000000000000000SUMMIT RUSSELL 2000 SMALL CAP INDEX   000000000000000                                                
FPR001AMESUMCUAAMEW1002008022601000000001000000000000000000SUMMIT S&P MIDCAP 400 INDEX           000000000000000                                                
FPR001AMETAVAUAAMEW1002008022602528000002528000000000000000THIRD AVENUE VALUE                    000000000000000                                                
FPR001AMEFIMMVAAMEW2092008022600112750200112750200000000000AMERITAS MONEY MARKET (CAMCO)         000000000000000                                                
FPR001AMEFSHIVAAMEW2092008022600574000000574000000000000000FIDELITY HIGH INCOME (SVC CL 2)       000000000000000                                                
FPR001AMEFSGRVAAMEW2092008022604112000004112000000000000000FIDELITY GROWTH (SVC CL 2)            000000000000000                                                
FPR001AMEFSEQVAAMEW2092008022602239000002239000000000000000FIDELITY EQUITY-INCOME (SVC CL 2)     000000000000000                                                
FPR001AMEFSIBVAAMEW2092008022601204000001204000000000000000FIDELITY INVEST GRADE BOND (SVC CL 2) 000000000000000                                                
FPR001AMEFSOSVAAMEW2092008022602097000002097000000000000000FIDELITY OVERSEAS (SVC CL 2)          000000000000000                                                
FPR001AMEFSCOVAAMEW2092008022602468000002468000000000000000FIDELITY CONTRAFUND (SVC CL 2)        000000000000000                                                
FPR001AMEALMCVAAMEW2092008022603418000003418000000000000000AMERITAS MID CAP GROWTH (ALGER)       000000000000000                                                
FPR001AMEAMCSVAAMEW2092008022601902000001902000000000000000AMERITAS CORE STRATEGIES              000000000000000                                                
FPR001AMECABAVAAMEW2092008022600184900000184900000000000000CALVERT SOCIAL BALANCED               000000000000000                                                
FPR001AMECASCVAAMEW2092008022601664514801664514800000000000CALVERT SOCIAL SMALL CAP GROWTH       000000000000000                                                
FPR001AMECAMCVAAMEW2092008022603009778403009778400000000000CALVERT SOCIAL MID CAP GROWTH         000000000000000                                                
FPR001AMECAIEVAAMEW2092008022602174643602174643600000000000CALVERT SOCIAL INTERNATIONAL EQUITY   000000000000000                                                
FPR001AMECASEVAAMEW2092008022601936260701936260700000000000CALVERT SOCIAL EQUITY                 000000000000000                                                
FPR001AMECAINVAAMEW2092008022602002239802002239800000000000CALVERT INCOME                        000000000000000                                                
FPR001AMETAVAVAAMEW2092008022602528000002528000000000000000THIRD AVENUE VALUE                    000000000000000                                                
FPR001AMEFIMMWAAMEW3082008022600108610000108610000000000000AMERITAS MONEY MARKET (CAMCO)         000000000000000                                                
FPR001AMEFSHIWAAMEW3082008022600574000000574000000000000000FIDELITY HIGH INCOME (SVC CL 2)       000000000000000                                                
FPR001AMEFSGRWAAMEW3082008022604112000004112000000000000000FIDELITY GROWTH (SVC CL 2)            000000000000000                                                
FPR001AMEFSEQWAAMEW3082008022602922053502922053500000000000FIDELITY EQUITY-INCOME (SVC CL 2)     000000000000000                                                
FPR001AMEFSIBWAAMEW3082008022601506979801506979800000000000FIDELITY INVEST GRADE BOND (SVC CL 2) 000000000000000                                                
FPR001AMEFSOSWAAMEW3082008022602097000002097000000000000000FIDELITY OVERSEAS (SVC CL 2)          000000000000000                                                
FPR001AMEFSCOWAAMEW3082008022602468000002468000000000000000FIDELITY CONTRAFUND (SVC CL 2)        000000000000000                                                
FPR001AMEFINDWAAMEW3082008022615072406615072406600000000000AMERITAS INDEX 500 (SSGA)             000000000000000                                                
FPR001AMEALIGWAAMEW3082008022601375060801375060800000000000AMERITAS INCOME & GROWTH (SUMMIT)     000000000000000                                                
FPR001AMEALMCWAAMEW3082008022603418000003418000000000000000AMERITAS MID CAP GROWTH (ALGER)       000000000000000                                                
FPR001AMEALLAWAAMEW3082008022604913000004913000000000000000ALGER LEVERAGED ALLCAP                000000000000000                                                
FPR001AMEAMCSWAAMEW3082008022601902000001902000000000000000AMERITAS CORE STRATEGIES              000000000000000                                                
FPR001AMECABAWAAMEW3082008022600219907300219907300000000000CALVERT SOCIAL BALANCED               000000000000000                                                
FPR001AMECAMCWAAMEW3082008022602950202302950202300000000000CALVERT SOCIAL MID CAP GROWTH         000000000000000                                                
FPR001AMECAIEWAAMEW3082008022602368524802368524800000000000CALVERT SOCIAL INTERNATIONAL EQUITY   000000000000000                                                
FPR001AMETAVAWAAMEW3082008022602528000002528000000000000000THIRD AVENUE VALUE                    000000000000000                                                
FPR001AMEVAMMLLAMEP3092008022600149527300149527300000000000VANGUARD MONEY MARKET                 000000000000000                                                
FPR001AMEVAHBLLAMEP3092008022601931112201931112200000000000VANGUARD TOTAL BOND MARKET INDEX      000000000000000                                                
FPR001AMEVABALLAMEP3092008022603971602903971602900000000000VANGUARD BALANCED                     000000000000000                                                
FPR001AMEVAEXLLAMEP3092008022604048830304048830300000000000VANGUARD EQUITY INDEX                 000000000000000                                                
FPR001AMEVAEILLAMEP3092008022603485755003485755000000000000VANGUARD EQUITY INCOME                000000000000000                                                
FPR001AMEVAGRLLAMEP3092008022601978937901978937900000000000VANGUARD GROWTH                       000000000000000                                                
FPR001AMEVAINLLAMEP3092008022603081472903081472900000000000VANGUARD INTERNATIONAL                000000000000000                                                
FPR001AMEVAHYLLAMEP3092008022601627146501627146500000000000VANGUARD HIGH YIELD                   000000000000000                                                
FPR001AMEVASGLLAMEP3092008022602893858602893858600000000000VANGUARD SMALL COMPANY GROWTH         000000000000000                                                
FPR001AMEVATSLLAMEP3092008022603319926503319926500000000000VANGUARD TOTAL STOCK MARKET INDEX     000000000000000                                                
FPR001AMENBLBLLAMEP3092008022602207692102207692100000000000NEUBERGER AMT SHORT DURATION BND      000000000000000                                                
FPR001AMENBGRLLAMEP3092008022605402169305402169300000000000NEUBERGER BERMAN GROWTH               000000000000000                                                
FPR001AMENBPALLAMEP3092008022603874627703874627700000000000NEUBERGER BERMAN PARTNERS             000000000000000                                                
FPR001AMENBBALLAMEP3092008022603505479503505479500000000000NEUBERGER BERMAN BALANCED             000000000000000                                                
FPR001AMERYNVLLAMEP3092008022601309769401309769400000000000RYDEX NOVA                            000000000000000                                                
FPR001AMERYURLLAMEP3092008022600548201400548201400000000000RYDEX INVERSE S&P 500 STRATEGY        000000000000000                                                
FPR001AMERYOTLLAMEP3092008022601558687901558687900000000000RYDEX OTC                             000000000000000                                                
FPR001AMERYGBLLAMEP3092008022601638922401638922400000000000RYDEX GOVT LONG BOND 1.2x STRATEGY    000000000000000                                                
FPR001AMERYPMLLAMEP3092008022601587742701587742700000000000RYDEX PRECIOUS METALS                 000000000000000                                                
FPR001AMECASCLLAMEP3092008022601739817601739817600000000000CALVERT SOCIAL SMALL CAP GROWTH       000000000000000                                                
FPR001AMECAMCLLAMEP3092008022603294476803294476800000000000CALVERT SOCIAL MID CAP GROWTH         000000000000000                                                
FPR001AMECAIELLAMEP3092008022602668413202668413200000000000CALVERT SOCIAL INTERNATIONAL EQUITY   000000000000000                                                
FPR001AMECABALLAMEP3092008022600238778800238778800000000000CALVERT SOCIAL BALANCED               000000000000000                                                
FPR001AMEVARILLAMEP3092008022602854644002854644000000000000VANGUARD REIT INDEX                   000000000000000                                                
FPR001AMEVADVLLAMEP3092008022601744783101744783100000000000VANGUARD DIVERSIFIED VALUE            000000000000000                                                
FPR001AMEVAMCLLAMEP3092008022602276153302276153300000000000VANGUARD MID-CAP INDEX                000000000000000                                                
FPR001AMESTSFLLAMEP3092008022603266802703266802700000000000WFVT OPPORTUNITY FUND                 000000000000000                                                
FPR001AMEWFDFLLAMEP3092008022601764492301764492300000000000WFVT DISCOVERY FUND                   000000000000000                                                
FPR001AMEFSMCLLAMEP3092008022604247340604247340600000000000FIDELITY VIP MID CAP (SVC CL)         000000000000000                                                
FPR001AMEFIOSLLAMEP3092008022602623299102623299100000000000FIDELITY OVERSEAS Initial Class       000000000000000                                                
FPR001AMEFICOLLAMEP3092008022603703355603703355600000000000FIDELITY CONTRAFUND Initial Class     000000000000000                                                
FPR001AMEALGRLLAMEP3092008022604947073704947073700000000000AMERITAS GROWTH (ALGER)               000000000000000                                                
FPR001AMEALIGLLAMEP3092008022601399305501399305500000000000AMERITAS INCOME & GROWTH (SUMMIT)     000000000000000                                                
FPR001AMEBTSCLLAMEP3092008022601658199001658199000000000000DWS SMALL CAP INDEX VIP               000000000000000                                                
FPR001AMETAVALLAMEP3092008022603088918003088918000000000000THIRD AVENUE VALUE                    000000000000000                                                
FPR001AMEINFSLLAMEP3092008022601281565801281565800000000000AIM V.I. FINANCIAL SERVICES           000000000000000                                                
FPR001AMEINHSLLAMEP3092008022602181901302181901300000000000AIM V.I. GLOBAL HEALTH CARE SCIENCES  000000000000000                                                
FPR001AMEINTCLLAMEP3092008022601247210901247210900000000000AIM V.I. TECHNOLOGY                   000000000000000                                                
FPR001AMEJNGRLLAMEP3092008022602443552502443552500000000000JANUS ASPEN LARGE CAP GROWTH PORTFOLIO000000000000000                                                
FPR001AMENBLBOAAMEP7052008022602064812702064812700000000000NEUBERGER AMT SHORT DURATION BND      000000000000000                                                
FPR001AMENBBAOAAMEP7052008022603044738203044738200000000000NEUBERGER BERMAN BALANCED             000000000000000                                                
FPR001AMENBPAOAAMEP7052008022603626158403626158400000000000NEUBERGER BERMAN PARTNERS             000000000000000                                                
FPR001AMENBGROAAMEP7052008022604633511504633511500000000000NEUBERGER BERMAN GROWTH               000000000000000                                                
FPR001AMEWFDFOAAMEP7052008022601774675501774675500000000000WFVT DISCOVERY FUND                   000000000000000                                                
FPR001AMESTSFOAAMEP7052008022605285193505285193500000000000WFVT OPPORTUNITY FUND                 000000000000000                                                
FPR001AMERYNVOAAMEP7052008022601262841101262841100000000000RYDEX NOVA                            000000000000000                                                
FPR001AMERYUROAAMEP7052008022600559596700559596700000000000RYDEX INVERSE S&P 500 STRATEGY        000000000000000                                                
FPR001AMERYOTOAAMEP7052008022601581417201581417200000000000RYDEX OTC                             000000000000000                                                
FPR001AMERYGBOAAMEP7052008022601661192201661192200000000000RYDEX GOVT LONG BOND 1.2x STRATEGY    000000000000000                                                
FPR001AMERYPMOAAMEP7052008022601608811901608811900000000000RYDEX PRECIOUS METALS                 000000000000000                                                
FPR001AMECASCOAAMEP7052008022601710339201710339200000000000CALVERT SOCIAL SMALL CAP GROWTH       000000000000000                                                
FPR001AMECAMCOAAMEP7052008022603109155603109155600000000000CALVERT SOCIAL MID CAP GROWTH         000000000000000                                                
FPR001AMECAIEOAAMEP7052008022602494015402494015400000000000CALVERT SOCIAL INTERNATIONAL EQUITY   000000000000000                                                
FPR001AMECABAOAAMEP7052008022600241698800241698800000000000CALVERT SOCIAL BALANCED               000000000000000                                                
FPR001AMEFSHIOAAMEP7052008022600911553500911553500000000000FIDELITY VIP HIGH INCOME (SVC CL)     000000000000000                                                
FPR001AMEFSCOOAAMEP7052008022603764707803764707800000000000FIDELITY VIP CONTRAFUND (SVC CL)      000000000000000                                                
FPR001AMEFSMCOAAMEP7052008022604292895604292895600000000000FIDELITY VIP MID CAP (SVC CL)         000000000000000                                                
FPR001AMEFIIBOAAMEP7052008022601773411101773411100000000000FIDELITY VIP INVESTMENT GRADE BOND    000000000000000                                                
FPR001AMEALGROAAMEP7052008022604965376204965376200000000000AMERITAS GROWTH (ALGER)               000000000000000                                                
FPR001AMEALSCOAAMEP7052008022603333525003333525000000000000AMERITAS SMALL CAP (EAGLE)            000000000000000                                                
FPR001AMEALMCOAAMEP7052008022605285396405285396400000000000AMERITAS MID CAP GROWTH (ALGER)       000000000000000                                                
FPR001AMEALIGOAAMEP7052008022601405667401405667400000000000AMERITAS INCOME & GROWTH (SUMMIT)     000000000000000                                                
FPR001AMEBTSCOAAMEP7052008022601686238901686238900000000000DWS SMALL CAP INDEX VIP               000000000000000                                                
FPR001AMEFINDOAAMEP7052008022616704591716704591700000000000AMERITAS INDEX 500 (SSGA)             000000000000000                                                
FPR001AMETAVAOAAMEP7052008022603131137903131137900000000000THIRD AVENUE VALUE                    000000000000000                                                
FPR001AMEINFSOAAMEP7052008022601299231501299231500000000000AIM V.I. FINANCIAL SERVICES           000000000000000                                                
FPR001AMEINHSOAAMEP7052008022602211957402211957400000000000AIM V.I. GLOBAL HEALTH CARE SCIENCES  000000000000000                                                
FPR001AMEINTCOAAMEP7052008022601265994001265994000000000000AIM V.I. TECHNOLOGY                   000000000000000                                                
FPR001AMEVAMMOAAMEP7052008022600117507800117507800000000000VANGUARD MONEY MARKET                 000000000000000                                                
FPR001AMEVAHBOAAMEP7052008022601464548201464548200000000000VANGUARD TOTAL BOND MARKET INDEX      000000000000000                                                
FPR001AMEVAHYOAAMEP7052008022601185456201185456200000000000VANGUARD HIGH YIELD BOND              000000000000000                                                
FPR001AMEVAEIOAAMEP7052008022602891085302891085300000000000VANGUARD EQUITY INCOME                000000000000000                                                
FPR001AMEVAEXOAAMEP7052008022603853719603853719600000000000VANGUARD EQUITY INDEX                 000000000000000                                                
FPR001AMEVAGROAAMEP7052008022601354169501354169500000000000VANGUARD GROWTH                       000000000000000                                                
FPR001AMEVASGOAAMEP7052008022602125729102125729100000000000VANGUARD SMALL COMPANY GROWTH         000000000000000                                                
FPR001AMEVAINOAAMEP7052008022602599520102599520100000000000VANGUARD INTERNATIONAL                000000000000000                                                
FPR001AMEVARIOAAMEP7052008022602897628202897628200000000000VANGUARD REIT INDEX                   000000000000000                                                
FPR001AMEVADVOAAMEP7052008022601770760501770760500000000000VANGUARD DIVERSIFIED VALUE            000000000000000                                                
FPR001AMEVAMCOAAMEP7052008022602311527402311527400000000000VANGUARD MID-CAP INDEX                000000000000000                                                
FPR001AMEJNGROAAMEP7052008022602467703002467703000000000000JANUS ASPEN LARGE CAP GROWTH PORTFOLIO000000000000000                                                
FPR001AMENBBAHLAMEF8552008022601972003801972003800000000000NEUBERGER BERMAN BALANCED             000000000000000                                                
FPR001AMENBLBHLAMEF8552008022601547291001547291000000000000NEUBERGER AMT SHORT DURATION BND      000000000000000                                                
FPR001AMENBGDHLAMEF8552008022602149316102149316100000000000NEUBERGER BERMAN GUARDIAN             000000000000000                                                
FPR001AMENBMCHLAMEF8552008022602457600702457600700000000000NEUBERGER BERMAN MID-CAP GROWTH       000000000000000                                                
FPR001AMERYNVHLAMEF8552008022601261429501261429500000000000RYDEX NOVA                            000000000000000                                                
FPR001AMERYURHLAMEF8552008022600494442900494442900000000000RYDEX INVERSE S&P 500 STRATEGY        000000000000000                                                
FPR001AMERYOTHLAMEF8552008022601542160501542160500000000000RYDEX OTC                             000000000000000                                                
FPR001AMERYPMHLAMEF8552008022601612088801612088800000000000RYDEX PRECIOUS METALS                 000000000000000                                                
FPR001AMERYGBHLAMEF8552008022601599242401599242400000000000RYDEX GOVT LONG BOND 1.2x STRATEGY    000000000000000                                                
FPR001AMEBTEXHLAMEF8552008022601530418901530418900000000000DWS EQUITY 500 INDEX VIP              000000000000000                                                
FPR001AMEBTSCHLAMEF8552008022601665803901665803900000000000DWS SMALL CAP INDEX VIP               000000000000000                                                
FPR001AMECASCHLAMEF8552008022601632000001632000000000000000CALVERT SOCIAL SMALL CAP GROWTH       000000000000000                                                
FPR001AMECAMCHLAMEF8552008022602963000002963000000000000000CALVERT SOCIAL MID CAP GROWTH         000000000000000                                                
FPR001AMECAIEHLAMEF8552008022602474147502474147500000000000CALVERT SOCIAL INTERNATIONAL EQUITY   000000000000000                                                
FPR001AMECABAHLAMEF8552008022600184900000184900000000000000CALVERT SOCIAL BALANCED               000000000000000                                                
FPR001AMEFSHIHLAMEF8552008022601006510101006510100000000000FIDELITY VIP HIGH INCOME (SVC CL)     000000000000000                                                
FPR001AMEFSCOHLAMEF8552008022603760501403760501400000000000FIDELITY VIP CONTRAFUND (SVC CL)      000000000000000                                                
FPR001AMEFSMCHLAMEF8552008022604282900704282900700000000000FIDELITY VIP MID CAP (SVC CL)         000000000000000                                                
FPR001AMEFIIBHLAMEF8552008022601766363001766363000000000000FIDELITY VIP INVESTMENT GRADE BOND    000000000000000                                                
FPR001AMEFIOSHLAMEF8552008022602637942802637942800000000000FIDELITY OVERSEAS Initial Class       000000000000000                                                
FPR001AMEALGRHLAMEF8552008022604953269904953269900000000000AMERITAS GROWTH (ALGER)               000000000000000                                                
FPR001AMEALSCHLAMEF8552008022603325194003325194000000000000AMERITAS SMALL CAP (EAGLE)            000000000000000                                                
FPR001AMEALMCHLAMEF8552008022605266577505266577500000000000AMERITAS MID CAP GROWTH (ALGER)       000000000000000                                                
FPR001AMEALIGHLAMEF8552008022601404075101404075100000000000AMERITAS INCOME & GROWTH (SUMMIT)     000000000000000                                                
FPR001AMESTSFHLAMEF8552008022602801019602801019600000000000WFVT OPPORTUNITY FUND                 000000000000000                                                
FPR001AMEWFDFHLAMEF8552008022601787997601787997600000000000WFVT DISCOVERY FUND                   000000000000000                                                
FPR001AMETAVAHLAMEF8552008022603121622303121622300000000000THIRD AVENUE VALUE                    000000000000000                                                
FPR001AMEINFSHLAMEF8552008022601300101701300101700000000000AIM V.I. FINANCIAL SERVICES           000000000000000                                                
FPR001AMEINHSHLAMEF8552008022602215767402215767400000000000AIM V.I. GLOBAL HEALTH CARE SCIENCES  000000000000000                                                
FPR001AMEINTCHLAMEF8552008022601278426601278426600000000000AIM V.I. TECHNOLOGY                   000000000000000                                                
FPR001AMEVAMMHLAMEF8552008022600117365000117365000000000000VANGUARD MONEY MARKET                 000000000000000                                                
FPR001AMEVAHBHLAMEF8552008022601464764401464764400000000000VANGUARD TOTAL BOND MARKET INDEX      000000000000000                                                
FPR001AMEVAHYHLAMEF8552008022601117652601117652600000000000VANGUARD HIGH YIELD BOND              000000000000000                                                
FPR001AMEVAEIHLAMEF8552008022602881309202881309200000000000VANGUARD EQUITY INCOME                000000000000000                                                
FPR001AMEVAEXHLAMEF8552008022603841266103841266100000000000VANGUARD EQUITY INDEX                 000000000000000                                                
FPR001AMEVAGRHLAMEF8552008022601349850501349850500000000000VANGUARD GROWTH                       000000000000000                                                
FPR001AMEVASGHLAMEF8552008022602118174502118174500000000000VANGUARD SMALL COMPANY GROWTH         000000000000000                                                
FPR001AMEVAINHLAMEF8552008022602599726102599726100000000000VANGUARD INTERNATIONAL                000000000000000                                                
FPR001AMEVARIHLAMEF8552008022602887276502887276500000000000VANGUARD REIT INDEX                   000000000000000                                                
FPR001AMEVADVHLAMEF8552008022601767348501767348500000000000VANGUARD DIVERSIFIED VALUE            000000000000000                                                
FPR001AMEVAMCHLAMEF8552008022602299675802299675800000000000VANGUARD MID-CAP INDEX                000000000000000                                                
FPR001AMEVATSHLAMEF8552008022603335619603335619600000000000VANGUARD TOTAL STOCK MARKET INDEX     000000000000000                                                
FPR001AMEFIEQBBAME93952008022602380461902380461900000000000FIDELITY EQUITY INCOME                000000000000000                                                
FPR001AMEFIINBBAME93952008022602376816902376816900000000000FIDELITY INDEX 500                    000000000000000                                                
FPR001AMEFIGRBBAME93952008022602048993902048993900000000000FIDELITY GROWTH                       000000000000000                                                
FPR001AMEFIAMBBAME93952008022602066104102066104100000000000FIDELITY ASSET MANAGER                000000000000000                                                
FPR001AMEFIIBBBAME93952008022601707589101707589100000000000INVESTMENT GRADE BOND FUND            000000000000000                                                
FPR001AMEFIMMBBAME93952008022601380078901380078900000000000FIDELITY MONEY MARKET                 000000000000000                                                
FPR001AMEFICOBBAME93952008022603249901003249901000000000000FIDELITY CONTRAFUND                   000000000000000                                                
FPR001AMEALSCBBAME93952008022601435290301435290300000000000ALGER SMALL CAP                       000000000000000                                                
FPR001AMEALMCBBAME93952008022603059629403059629400000000000ALGER MID CAP GROWTH                  000000000000000                                                
FPR001AMEOAMABBAME93952008022601929014801929014800000000000PREMIER OPCAP MANAGED                 000000000000000                                                
FPR001AMEOASCBBAME93952008022602781131102781131100000000000PREMIER OPCAP SMALL CAP               000000000000000                                                
FPR001AMETRISBBAME93952008022601844075601844075600000000000T ROWE PRICE INTERNATIONAL STOCKS     000000000000000                                                
FPR001AMETRLTBBAME93952008022601519134401519134400000000000LIMITED TERM BOND FUND                000000000000000                                                
FPR001AMEVEWWBBAME93952008022604375795004375795000000000000VAN ECK WORLDWIDE HARD ASSETS         000000000000000                                                
FPR001AMEFIEQABAME93972008022602380400602380400600000000000FIDELITY EQUITY INCOME                000000000000000                                                
FPR001AMEFIINABAME93972008022602376754902376754900000000000FIDELITY INDEX 500                    000000000000000                                                
FPR001AMEFIGRABAME93972008022602048943102048943100000000000FIDELITY GROWTH                       000000000000000                                                
FPR001AMEFIAMABAME93972008022602066051902066051900000000000FIDELITY ASSET MANAGER                000000000000000                                                
FPR001AMEFIIBABAME93972008022601707547301707547300000000000INVESTMENT GRADE BOND FUND            000000000000000                                                
FPR001AMEFIMMABAME93972008022601382080401382080400000000000FIDELITY MONEY MARKET                 000000000000000                                                
FPR001AMEFICOABAME93972008022603249819303249819300000000000FIDELITY CONTRAFUND                   000000000000000                                                
FPR001AMEALSCABAME93972008022601435251001435251000000000000ALGER SMALL CAP                       000000000000000                                                
FPR001AMEALMCABAME93972008022603059552103059552100000000000ALGER MID CAP GROWTH                  000000000000000                                                
FPR001AMEOAMAABAME93972008022601928967601928967600000000000PREMIER OPCAP MANAGED                 000000000000000                                                
FPR001AMEOASCABAME93972008022602781138202781138200000000000PREMIER OPCAP SMALL CAP               000000000000000                                                
FPR001AMETRISABAME93972008022601844024401844024400000000000T ROWE PRICE INTERNATIONAL STOCKS     000000000000000                                                
FPR001AMETRLTABAME93972008022601519415001519415000000000000LIMITED TERM BOND FUND                000000000000000                                                
FPR001AMEVEWWABAME93972008022604375679704375679700000000000VAN ECK WORLDWIDE HARD ASSETS         000000000000000                                                
FPR001AMEFEOVABAME93972008022604964770304964770300000000000FIRST EAGLE OVERSEAS VARIABLE         000000000000000                                                
FPR001AMENBMCABAME93972008022600773818800773818800000000000NB MID CAP GROWTH                     000000000000000                                                
FPR001AMENBSRABAME93972008022601585352001585352000000000000NB SOCIALLY RESPONSIVE                000000000000000                                                
FPR001AMEPIHYABAME93972008022601410073301410073300000000000PREMIER HIGH YIELD                    000000000000000                                                
FPR001AMEPIRRABAME93972008022601808301701808301700000000000PREMIER REAL RETURN                   000000000000000                                                
FPR001AMEPIGIABAME93972008022601107169001107169000000000000PREMIER STOCK PLUS GROWTH & INCOME    000000000000000                                                
FPR001AMEPRPCABAME93972008022602496385802496385800000000000PIONEER FUND VCT PORTFOLIO CLASS I    000000000000000                                                
FPR001AMERCRCABAME93972008022603890629803890629800000000000ROYCE MICRO CAP                       000000000000000                                                
FPR001AMESRGRABAME93972008022601265821401265821400000000000PIONEER GROWTH OPPORTUNITIES VCT PORTF000000000000000                                                
FPR001AMEVAMMEBAMEP8202008022600111707300111707300000000000VANGUARD MONEY MARKET                 000000000000000                                                
FPR001AMEVADVEBAMEP8202008022601671942401671942400000000000VANGUARD DIVERSIFIED VALUE            000000000000000                                                
FPR001AMEVAEIEBAMEP8202008022602194932802194932800000000000VANGUARD EQUITY INCOME                000000000000000                                                
FPR001AMEVAEXEBAMEP8202008022603161129603161129600000000000VANGUARD EQUITY INDEX                 000000000000000                                                
FPR001AMEVATSEBAMEP8202008022603347455103347455100000000000VANGUARD TOTAL STOCK MARKET INDEX     000000000000000                                                
FPR001AMEVAGREBAMEP8202008022601291794301291794300000000000VANGUARD GROWTH                       000000000000000                                                
FPR001AMEVAMCEBAMEP8202008022602087033102087033100000000000VANGUARD MID-CAP INDEX                000000000000000                                                
FPR001AMEVASGEBAMEP8202008022601976195401976195400000000000VANGUARD SMALL COMPANY GROWTH         000000000000000                                                
FPR001AMEVABAEBAMEP8202008022602291142302291142300000000000VANGUARD BALANCED                     000000000000000                                                
FPR001AMEVAINEBAMEP8202008022602409651202409651200000000000VANGUARD INTERNATIONAL                000000000000000                                                
FPR001AMEVAHYEBAMEP8202008022600917086800917086800000000000VANGUARD HIGH YIELD BOND              000000000000000                                                
FPR001AMEVAHBEBAMEP8202008022601237216201237216200000000000VANGUARD TOTAL BOND MARKET INDEX      000000000000000                                                
FPR001AMEVARIEBAMEP8202008022602249428502249428500000000000VANGUARD REIT INDEX                   000000000000000                                                
FPR001AMEFIEQEBAMEP8202008022602921543002921543000000000000FIDELITY VIP EQUITY-INCOME            000000000000000                                                
FPR001AMEFICOEBAMEP8202008022603714792503714792500000000000FIDELITY VIP CONTRAFUND               000000000000000                                                
FPR001AMEFIGREBAMEP8202008022604158733904158733900000000000FIDELITY VIP GROWTH                   000000000000000                                                
FPR001AMEFIMCEBAMEP8202008022604307938304307938300000000000FIDELITY VIP MID CAP                  000000000000000                                                
FPR001AMEFIOSEBAMEP8202008022602645958102645958100000000000FIDELITY VIP OVERSEAS                 000000000000000                                                
FPR001AMEFIHIEBAMEP8202008022600732706600732706600000000000FIDELITY VIP HIGH INCOME              000000000000000                                                
FPR001AMEFIIBEBAMEP8202008022601371401901371401900000000000FIDELITY VIP INVESTMENT GRADE BOND    000000000000000                                                
FPR001AMETAVAEBAMEP8202008022603004670203004670200000000000THIRD AVENUE VALUE                    000000000000000                                                
FPR001AMECASEEBAMEP8202008022601999021501999021500000000000CALVERT SOCIAL EQUITY                 000000000000000                                                
FPR001AMECAMCEBAMEP8202008022602985343902985343900000000000CALVERT SOCIAL MID CAP GROWTH         000000000000000                                                
FPR001AMECASCEBAMEP8202008022601632678201632678200000000000CALVERT SOCIAL SMALL CAP GROWTH       000000000000000                                                
FPR001AMECABAEBAMEP8202008022600206991600206991600000000000CALVERT SOCIAL BALANCED               000000000000000                                                
FPR001AMECAIEEBAMEP8202008022602182568002182568000000000000CALVERT SOCIAL INTERNATIONAL EQUITY   000000000000000                                                
FPR001AMEPICREBAMEP8202008022601729782001729782000000000000PIMCO PVIT COMMODITYREALRETURN STRATEG000000000000000                                                
FPR001AMERYNVEBAMEP8202008022600931452000931452000000000000RYDEX NOVA                            000000000000000                                                
FPR001AMERYUREBAMEP8202008022600503136700503136700000000000RYDEX INVERSE S&P 500 STRATEGY        000000000000000                                                
FPR001AMERYOTEBAMEP8202008022601538097801538097800000000000RYDEX OTC                             000000000000000                                                
FPR001AMERYAREBAMEP8202008022602152975002152975000000000000RYDEX INVERSE OTC STRATEGY            000000000000000                                                
FPR001AMERYMKEBAMEP8202008022603523760703523760700000000000RYDEX RUSSELL 2000 1.5x STRATEGY      000000000000000                                                
FPR001AMERYJUEBAMEP8202008022602161887402161887400000000000RYDEX INVERSE GOVT LONG BOND STRATEGY 000000000000000                                                
FPR001AMERYSREBAMEP8202008022601545923601545923600000000000RYDEX SECTOR ROTATION                 000000000000000                                                
FPR001AMERYPMEBAMEP8202008022601666044701666044700000000000RYDEX PRECIOUS METALS                 000000000000000                                                
FPR001AMEPFCBFBAMEP8382008022603065764303065764300000000000PROFUNDS CLASSIC BULL                 000000000000000                                                
FPR001AMEPFCSFBAMEP8382008022603805052103805052100000000000PROFUNDS CLASSIC SMALL-CAP            000000000000000                                                
FPR001AMEPFCOFBAMEP8382008022601565578401565578400000000000PROFUNDS NASDAQ-100                   000000000000000                                                
FPR001AMEPFCMFBAMEP8382008022603701248203701248200000000000PROFUNDS CLASSIC MID-CAP VALUE        000000000000000                                                
FPR001AMEPFCCFBAMEP8382008022603405169403405169400000000000PROFUNDS CLASSIC SMALL-CAP VALUE      000000000000000                                                
FPR001AMEPFCEFBAMEP8382008022603432916903432916900000000000PROFUNDS CLASSIC EUROPE 30            000000000000000                                                
FPR001AMEPFCDFBAMEP8382008022603674319003674319000000000000PROFUNDS CLASSIC DOW 30               000000000000000                                                
FPR001AMEPFUBFBAMEP8382008022602192535402192535400000000000PROFUNDS ULTRA ULTRABULL              000000000000000                                                
FPR001AMEPFUMFBAMEP8382008022603986008603986008600000000000PROFUNDS ULTRA ULTRAMID-CAP           000000000000000                                                
FPR001AMEPFUSFBAMEP8382008022602838578702838578700000000000PROFUNDS ULTRA ULTRASMALL-CAP         000000000000000                                                
FPR001AMEPFUOFBAMEP8382008022604027079404027079400000000000PROFUNDS ULTRANASDAQ-100              000000000000000                                                
FPR001AMEPFIBFBAMEP8382008022602742998202742998200000000000PROFUNDS INVERSE BEAR                 000000000000000                                                
FPR001AMEPFISFBAMEP8382008022601612323601612323600000000000PROFUNDS INVERSE SHORT SMALL-CAP      000000000000000                                                
FPR001AMEPFIOFBAMEP8382008022601859445201859445200000000000PROFUNDS SHORT  NASDAQ-100            000000000000000                                                
FPR001AMEPFIDFBAMEP8382008022602752158302752158300000000000PROFUNDS INVERSE SHORT DOW 30         000000000000000                                                
FPR001AMEPFSOFBAMEP8382008022607350392907350392900000000000PROFUNDS SECTOR OIL & GAS             000000000000000                                                
FPR001AMEPFSPFBAMEP8382008022605836070105836070100000000000PROFUNDS SECTOR PRECIOUS METALS       000000000000000                                                
FPR001AMEPFSRFBAMEP8382008022605565541105565541100000000000PROFUNDS SECTOR REAL ESTATE           000000000000000                                                
FPR001AMEPFBUFBAMEP8382008022603255839203255839200000000000PROFUNDS BOND BENCHMARKED U.S. GOVERNM000000000000000                                                
FPR001AMEPFBRFBAMEP8382008022601907132801907132800000000000PROFUNDS BOND BENCHMARKED RISING RATES000000000000000                                                
FPR001AMEPFAHFBAMEP8382008022602794000002794000000000000000PROFUNDS ACCESS HIGH YIELD            000000000000000                                                
FPR001AMEPFMMFBAMEP8382008022600106701900106701900000000000PROFUNDS MONEY MARKET                 000000000000000                                                
RTR001PRICE REFRESHER000000546                                                                                                                                  
