RHR001PRICE REFRESHER2008022720080227*DSTBH*R                                                                                                                     
FPR001BHESCROWF00035102008022700001000000001000000000000000BEHRINGER HARVARD ESCROW FUND                                      REIT                              
FPR001BHMULREIT00035082008022700009250000009250000001013699MULTIFAMILY REIT I, INC                                            REIT                              
FPR001BHSTRATII00035072008022700010000000010000000000000000STRATEGIC OPPORTUNITY FUND II LP                                   LP                                
FPR001BHSTRATOP00035052008022700010000000010000000000000000STRATEGIC OPPORTUNITY FUND I LP                                    LP                                
FPR00107724P10400035032008022700009440000009440000000775890SHORT-TERM OPPORTUNITY FUND I LP                                   LP                                
FPR00107724Q10200035062008022700010000000010000000000821918OPPORTUNITY REIT I, INC                                            REIT                              
FPR00107724T10600035092008022700010000000010000000000821918OPPORTUNITY REIT II, INC                                           REIT                              
FPR00107724810200035042008022700010000000010000000001643836MID-TERM VALUE ENHANCEMENT FUND I LP                               LP                                
FPR00107724910000035012008022700010000000010000000001726030REIT I, INC                                                        REIT                              
FPR00135023502300035022008022700010000000010000000001726030REIT I, INC OPERATING PARTNERSHIP                                  REIT                              
RTR001PRICE REFRESHER000000012                                                                                                                                  
