RHR001FINANCIALDIRECT200802262008022622210939DTDMU1170150000001*DSTBH*R                                                                                         
DFA00105700000216626     BHMULREIT000350800000011111         F140009020080225001000A00010000000000000001000000000000010000020080222200802220100000000010Z1 00019
DFA0020000000000000000002530222675     CHARLES GIBSON                000110000000000G00000000000070000000000000040004500000000000000123123123202N         +    N
DFA00105700000216626     BHMULREIT000350800000022222         F140008920080222001000A00010000000000000150000000000001500000020080222200802220100000000000Z1      
DFA0020000000000000000000700192675     CHARLES GIBSON                000110000000000G00000000010500000000000006000004500000000000000456456456402N         +    N
DFA00105700000216626     BHMULREIT000350800000033333         F140009020080225003000A00010000000000000100000000000001000000020080225200802250100000000000Z1      
DFA0020010000010000000002530212675     CHARLES GIBSON                000110000000000G00000000007000000000000004000004500000000000000789789789202N         +    N
DFA00105700000216626     BHMULREIT000350800000044444         F140008920080222001000A00010000000000000100000000000001000000020080226200802260100000000000Z1      
DFA0020000000000000000000050322675     CHARLES ROGERS                000110000000000G00000000007000000000000004000000000000000000000121212121202N         +    N
DFA0010570000021ART      077249100000350100000055555         F140008920080222001000A00010000000000000100000000000001000000020080226200802260100000000000Z1      
DFA002000000000000000000005032331      LES JONES                     000110000000000G00000000007000000000000004000000000000000000000454545454202N         +    N
RTR001FINANCIALDIRECT000000012                                                                                                                                  
