RHR001FINANCIALDIRECT200802252008022521473010DGDMU1170150000001*DTGSS*                                                                                          
DFA0010580000255194      23337R106000047900600213333         F000040320080222025111S00004530000000000001250000000000027594020080225200802250000000000010A0      
DFA002010005073000000000703012281      KATHRYN BUCK                  000000000000000 00000000000000000000000000000000000000000000000456456789802N         +5   N
DFA0010580001156217      23337R106000047900600214444         F000040320080222025111S00008340000000000003000000000000035971020080225200802250000000000010A0      
DFA002010044533000000000703012217      TONY CAMPISI                  000000000000000 00000000000000000000000000000000000000000000000456456789202N         +8   N
DFA0010580001156217      23337R106000047900600214444         F000040320080222025111S00008340000000000001250000000000014988020080225200802250000000000010A0      
DFA002010005073000000000703012217      TONY CAMPISI                  000000000000000 00000000000000000000000000000000000000000000000123123123202N         +5   N
RTR001FINANCIALDIRECT000000008                                                                                                                                  
