RHR001ACCT POSITION  200802152008021521294323DGDMU1440140000001*DTGSS*                                                                                          
APR0010001156217      23339A101000000600028001111         F000010241431100000010241431100000000000000000000010000000000000000000        00000000000000N         
APR002000000000130952000000000000000000000102414311MONEYCHRI-217      TONY CAMPISI                  0000000000150000000000123123123202N         000010241431100 
APR0010002576BKD      23337G100000045200133242222         F000000026893980000000026893980000000000000000000229800000000000000000        00000000000000N         
APR002000000000000000000000000000000000000006180237ELLISBRUC-7Y8      ADAM SANDMAN                  0000000000700000000000159159159202N         000000026893980 
APR0010000255194      23337R106000047900600213333         F000000028844030000000028844030000000000000000000045500000000000000000        00000000000000N         
APR002000000000000000000000000000000000000001312403HEWITJENN-281      KATHRYN BUCK                  0100050737030000000000456456789802N         000000028844030 
APR0010001156217      23337R106000047900600214444         F000000194573970000000194573970000000000000000000090200000000000000000        00000000000000N         
APR002000000000048143000000000000000000000017550572MONEYSUZA-217      TONY CAMPISI                  0000000000700000000000456456789202N         000000194573970 
APR0010001156217      23337R106000047900600214444          F000000060765280000000060765280000000000000000000090200000000000000000        00000000000000N         
APR002000000000015034000000000000000000000005481028MONEYCHRI-217      TONY CAMPISI                  0000000000700000000000123123123202N         000000060765280 
RTR001ACCT POSITION  000000012                                                                                                                                  
