RHR001PRICE REFRESHER2008022620080226*DTGSS*                                                                                                                    
FPR001G4842812500002002008022600001000000001000000000081495MANAGED DOLLAR FD INVESTMENT CLASS                                 CPG                               
FPR001TEST0190300019032008022600009560000010143200000000000TOTAL RETURN-CLASS S TEST                                          DEAD                              
FPR001TEST0190400019042008022600001000000001000000000090643MMKT SERIES:MANAGED SHS TEST                                       DEAD                              
FPR00101447010800002112008022600001000000001000000000086725CASH RESERVE PRIME SERIES-INV                                      CPG                               
FPR00101447040500003112008022600001000000001000000000095714CASH RESERVE PRIME SERIES-INST                                     CPG                               
FPR00114753920900000472008022600001000000001000000000070955CAT-GOVERNMENT & AGENCY SEC PORT-SVC                               CPG                               
FPR00114753940700000972008022600001000000001000000000084996PREMIUM RESERVE MM SHARES                                          CPG                               
FPR00114753950600003462008022600001000000001000000000074858PREMIER MM SHARES MONEY MKT PORTFOLIO                              CPG                               
FPR00114753960500001462008022600001000000001000000000093899INSTITUTIONAL MONEY MARKET SHARES                                  CPG                               
FPR00114753962100002652008022600001000000001000000000059303CAT TAX-FREE INVESTMENT CLASS                                      CPG                               
FPR00114753963900020562008022600001000000001000000000068581DWS TAX-FREE MONEY FUND-S                                          MMFD                              
FPR00114753964700003572008022600001000000001000000000069178DWS TAX-EXEMPT MONEY FUND                                          MMFD                              
FPR00114753965400003562008022600001000000001000000000091043DWS GOVERNMENT & AGENCY MONEY FUND                                 MMFD                              
FPR00114753966200002542008022600001000000001000000000087044CAT GOVERNMENT CASH MANAGED SHARES                                 CPG                               
FPR00114753967000002502008022600001000000001000000000093376DWS GOVERNMENT CASH INST SHARES                                    CPG                               
FPR00114753968800004272008022600001000000001000000000085359CAPITAL ASSETS FUNDS PREFERRED MM PORT                             CPG                               
FPR00114753969600004482008022600001000000001000000000047912CAT TAX-EXEMPT PORTFOLIO SVC SH                                    CPG                               
FPR00114753971200004302008022600001000000001000000000047786CAPITAL ASSETS FUNDS TAX-EXEMPT PORT                               CPG                               
FPR00114753972000004282008022600001000000001000000000071737CAPITAL ASSETS FUNDS GOV & AGENCY PORT                             CPG                               
FPR00114753973800004262008022600001000000001000000000072467CAPITAL ASSETS FUNDS MONEY MARKET PORT                             CPG                               
FPR00114753974600002582008022600001000000001000000000051967DAVIDSON CE SHARES TAX EXEMPT                                      CPG                               
FPR00114753975300002572008022600001000000001000000000072357DAVIDSON CE SHARES GOVT & AGENCY                                   CPG                               
FPR00114753976100002642008022600001000000001000000000075578DAVIDSON CE PLUS SHARES GOVT & AGENCY                              CPG                               
FPR00114753977900002562008022600001000000001000000000073152DAVIDSON CE SHARES MONEY MARKET                                    CPG                               
FPR00114753978700002592008022600001000000001000000000077345DAVIDSON CE PLUS SHARES MONEY MARKET                               CPG                               
FPR00114753981100005232008022600001000000001000000000095269CAT MMP INSTITUTIONAL SELECT SERIES                                CPG                               
FPR00114753984500000462008022600001000000001000000000072732CAT-MONEY MARKET PORTFOLIO                                         CPG                               
FPR00114753985200003482008022600001000000001000000000049552PREMIER MM SHARES TAX-EXEMPT PORTFOLIO                             CPG                               
FPR00114753986000003472008022600001000000001000000000071607PREMIER MM SHARES-GOVT & AGENCY SEC                                CPG                               
FPR00114753987800002482008022600001000000001000000000064987TAX-EXEMPT CASH MANAGED SHARES                                     CPG                               
FPR00114753988600001482008022600001000000001000000000069977DWS TAX EXEMPT CASH INSTITUTIONAL SHRS                             CPG                               
FPR00123336W10600000022008022600009560000010143200000000000DWS BALANCED FUND-A                                                A                                 
FPR00123336W20500002022008022600009610000009610000000000000DWS BALANCED FUND-B                                                B                                 
FPR00123336W30400003022008022600009540000009540000000000000DWS BALANCED FUND-C                                                C                                 
FPR00123336W50200020332008022600009570000009570000000000000DWS BALANCED FUND-S                                                S                                 
FPR00123336W60100014022008022600009580000009580000000000000DWS BALANCED FUND-INST                                             INST                              
FPR00123336Y50800004832008022600014980000015893800000000000DWS MID CAP GROWTH FUND-A                                          A                                 
FPR00123336Y60700006832008022600014260000014260000000000000DWS MID CAP GROWTH FUND-B                                          B                                 
FPR00123336Y62300006182008022600009800000009800000000000000DWS SHORT DURATION PLUS FUND-B                                     B                                 
FPR00123336Y63100002662008022600001000000001000000000048099TAX EXEMPT NEW YORK MONEY MARKET FUND                              CPG                               
FPR00123336Y64900023652008022600009940000009940000000000000DWS RREEF GLOBAL REAL ESTATE SEC FD-S                              S                                 
FPR00123336Y65600008112008022600009930000009930000000000000DWS RREEF GLOBAL REAL ESTATE SEC-INST                              INST                              
FPR00123336Y66400007652008022600010040000010040000000000000DWS RREEF GLOBAL REAL ESTATE SEC FD-C                              C                                 
FPR00123336Y67200004652008022600009940000010546400000000000DWS RREEF GLOBAL REAL ESTATE SEC FD-A                              A                                 
FPR00123336Y69800008442008022600001000000001000000000053837NEW YORK TAX-FREE MONEY-INV                                        INMM                              
FPR00123336Y70600007832008022600014250000014250000000000000DWS MID CAP GROWTH FUND-C                                          C                                 
FPR00123336Y71400008392008022600001000000001000000000058315TAX FREE MONEY FUND-INV                                            INMM                              
FPR00123336Y73000007182008022600009780000009780000000000000DWS SHORT DURATION PLUS FUND-C                                     C                                 
FPR00123336Y74800004182008022600009790000010066800000000000DWS SHORT DURATION PLUS FUND-A                                     A                                 
FPR00123336Y75500008222008022600009810000009810000000000000DWS SHORT DURATION PLUS FUND-S                                     S                                 
FPR00123336Y76300014712008022600021920000021920000000000000DWS SMALL CAP GROWTH FUND-INST                                     INST                              
FPR00123336Y77100023142008022600021890000021890000000000000DWS SMALL CAP GROWTH FUND-S                                        S                                 
FPR00123336Y80500005832008022600015310000015310000000000000DWS MID CAP GROWTH FUND-INST                                       INST                              
FPR00123336Y82100007712008022600020680000020680000000000000DWS SMALL CAP GROWTH FUND-C                                        C                                 
FPR00123336Y83900006712008022600020680000020680000000000000DWS SMALL CAP GROWTH FUND-B                                        B                                 
FPR00123336Y84700004712008022600021690000023013200000000000DWS SMALL CAP GROWTH FUND-A                                        A                                 
FPR00123336Y86200023832008022600015100000015100000000000000DWS MID CAP GROWTH FUND-S                                          S                                 
FPR00123337A10300004812008022600012140000012880600000000000DWS LIFECOMPASS 2015 FUND-A                                        A                                 
FPR00123337A20200006812008022600012130000012130000000000000DWS LIFECOMPASS 2015 FUND-B                                        B                                 
FPR00123337A30100007812008022600012130000012130000000000000DWS LIFECOMPASS 2015 FUND-C                                        C                                 
FPR00123337A50900020812008022600012130000012130000000000000DWS LIFECOMPASS 2015 FUND-S                                        S                                 
FPR00123337A60800004802008022600012200000012944200000000000DWS LIFECOMPASS RETIREMENT FUND-A                                  A                                 
FPR00123337A70700006802008022600012200000012200000000000000DWS LIFECOMPASS RETIREMENT FUND-B                                  B                                 
FPR00123337A74900020572008022600009340000009340000000000000DWS LIFECOMPASS 2040 FUND-S                                        S                                 
FPR00123337A75600007572008022600009330000009330000000000000DWS LIFECOMPASS 2040 FUND-C                                        C                                 
FPR00123337A76400004572008022600009340000009909800000000000DWS LIFECOMPASS 2040 FUND-A                                        A                                 
FPR00123337A77200020842008022600011010000011010000000000000DWS LIFECOMPASS 2030 FUND-S                                        S                                 
FPR00123337A78000013842008022600011000000011000000000000000DWS LIFECOMPASS 2030 FUND-C                                        C                                 
FPR00123337A79800012842008022600011000000011000000000000000DWS LIFECOMPASS 2030 FUND-B                                        B                                 
FPR00123337A80600007802008022600012200000012200000000000000DWS LIFECOMPASS RETIREMENT FUND-C                                  C                                 
FPR00123337A81400010842008022600011010000011681600000000000DWS LIFECOMPASS 2030 FUND-A                                        A                                 
FPR00123337A82200020822008022600014510000014510000000000000DWS LIFECOMPASS 2020 FUND-S                                        S                                 
FPR00123337A84800007822008022600014420000014420000000000000DWS LIFECOMPASS 2020 FUND-C                                        C                                 
FPR00123337A85500006822008022600014420000014420000000000000DWS LIFECOMPASS 2020 FUND-B                                        B                                 
FPR00123337A86300004822008022600014500000015384600000000000DWS LIFECOMPASS 2020 FUND-A                                        A                                 
FPR00123337A87100020802008022600012200000012200000000000000DWS LIFECOMPASS RETIREMENT FUND-S                                  S                                 
FPR00123337E10500004192008022600024960000026482700000000000DWS GOLD & PRECIOUS METALS FUND-A                                  A                                 
FPR00123337E20400006192008022600024720000024720000000000000DWS GOLD & PRECIOUS METALS FUND-B                                  B                                 
FPR00123337E30300007192008022600024660000024660000000000000DWS GOLD & PRECIOUS METALS FUND-C                                  C                                 
FPR00123337E50100020192008022600024970000024970000000000000DWS GOLD & PRECIOUS METALS FUND-S                                  S                                 
FPR00123337F10200004632008022600012350000012931900000000000DWS CORE PLUS INCOME FUND-A                                        A                                 
FPR00123337F20100006632008022600012360000012360000000000000DWS CORE PLUS INCOME FUND-B                                        B                                 
FPR00123337F30000007632008022600012350000012350000000000000DWS CORE PLUS INCOME FUND-C                                        C                                 
FPR00123337F50800020632008022600012350000012350000000000000DWS CORE PLUS INCOME FUND-S                                        S                                 
FPR00123337F60700014632008022600012330000012330000000000000DWS CORE PLUS INCOME FUND-INST                                     INST                              
FPR00123337F70600004432008022600008860000009277400000000000DWS FLOATING RATE PLUS FUND-A                                      A                                 
FPR00123337F80500007432008022600008850000008850000000000000DWS FLOATING RATE PLUS FUND-C                                      C                                 
FPR00123337F87000014432008022600008860000008860000000000000DWS FLOATING RATE PLUS FUND-INST                                   INST                              
FPR00123337F88800020432008022600008860000008860000000000000DWS FLOATING RATE PLUS FUND-S                                      S                                 
FPR00123337G10000004522008022600024510000026005300000000000DWS HEALTH CARE FUND-A                                             A                                 
FPR00123337G20900006522008022600022880000022880000000000000DWS HEALTH CARE FUND-B                                             B                                 
FPR00123337G30800007522008022600022960000022960000000000000DWS HEALTH CARE FUND-C                                             C                                 
FPR00123337G50600023522008022600025000000025000000000000000DWS HEALTH CARE FUND-S                                             S                                 
FPR00123337G60500014522008022600025360000025360000000000000DWS HEALTH CARE FUND-INST                                          INST                              
FPR00123337G70400004502008022600016640000017655100000000000DWS SMALL CAP VALUE FUND-A                                         A                                 
FPR00123337G80300006502008022600015620000015620000000000000DWS SMALL CAP VALUE FUND-B                                         B                                 
FPR00123337G83700014462008022600009700000009700000000000000DWS CLIMATE CHANGE FUND-INST                                       INST                              
FPR00123337G84500020462008022600009710000009710000000000000DWS CLIMATE CHANGE FUND-S                                          S                                 
FPR00123337G85200007462008022600009660000009660000000000000DWS CLIMATE CHANGE FUND-C                                          C                                 
FPR00123337G86000004462008022600009700000010291700000000000DWS CLIMATE CHANGE FUND-A                                          A                                 
FPR00123337G87800020782008022600016610000016610000000000000DWS SMALL CAP VALUE FUND-S                                         S                                 
FPR00123337G88600007502008022600015710000015710000000000000DWS SMALL CAP VALUE FUND-C                                         C                                 
FPR00123337H10800000092008022600007250000007591600000884471DWS CALIFORNIA TAX-FREE INCOME FUND-A                              A                                 
FPR00123337H20700002092008022600007260000007260000000773123DWS CALIFORNIA TAX-FREE INCOME FUND-B                              B                                 
FPR00123337H30600003092008022600007210000007210000000756322DWS CALIFORNIA TAX-FREE INCOME FUND-C                              C                                 
FPR00123337H40500024092008022600007240000007240000000959520DWS CALIFORNIA TAX-FREE INCOME FUND-S                              S                                 
FPR00123337H50400000262008022600010500000010994700001254225DWS NEW YORK TAX-FREE INCOME FUND-A                                A                                 
FPR00123337H60300002262008022600010520000010520000001039977DWS NEW YORK TAX-FREE INCOME FUND-B                                B                                 
FPR00123337H70200003262008022600010500000010500000000950117DWS NEW YORK TAX-FREE INCOME FUND-C                                C                                 
FPR00123337H80100023262008022600010500000010500000001326857DWS NEW YORK TAX-FREE INCOME FUND-S                                S                                 
FPR00123337J10400004122008022600014050000014712000001609391DWS MASSACHUSETTS TAX-FREE FUND-A                                  A                                 
FPR00123337J20300006122008022600014040000014040000001316946DWS MASSACHUSETTS TAX-FREE FUND-B                                  B                                 
FPR00123337J30200007122008022600014040000014040000001315641DWS MASSACHUSETTS TAX-FREE FUND-C                                  C                                 
FPR00123337J50000020122008022600014040000014040000001685918DWS MASSACHUSETTS TAX-FREE FUND-S                                  S                                 
FPR00123337K10100000102008022600004550000004764300000000000DWS STRATEGIC INCOME FUND-A                                        A                                 
FPR00123337K20000002102008022600004550000004550000000000000DWS STRATEGIC INCOME FUND-B                                        B                                 
FPR00123337K30900003102008022600004580000004580000000000000DWS STRATEGIC INCOME FUND-C                                        C                                 
FPR00123337K50700023912008022600004560000004560000000000000DWS STRATEGIC INCOME FUND-S                                        S                                 
FPR00123337M10700000082008022600004830000005057500000000000DWS HIGH INCOME FUND-A                                             A                                 
FPR00123337M20600002082008022600004820000004820000000000000DWS HIGH INCOME FUND-B                                             B                                 
FPR00123337M30500003082008022600004830000004830000000000000DWS HIGH INCOME FUND-C                                             C                                 
FPR00123337M40400005132008022600004830000004830000000000000DWS HIGH INCOME FUND-INST                                          INST                              
FPR00123337N20400000572008022600009610000010115700000000000DWS TARGET 2008 FUND                                               A                                 
FPR00123337N30300000502008022600008480000008926300000000000DWS TARGET 2010 FUND                                               A                                 
FPR00123337N40200000522008022600010050000010578900000000000DWS TARGET 2011 FUND                                               A                                 
FPR00123337N50100000532008022600008490000008936800000000000DWS TARGET 2012 FUND                                               A                                 
FPR00123337N60000000542008022600009020000009494700000000000DWS TARGET 2013 FUND                                               A                                 
FPR00123337N70900000552008022600007630000008031500000000000DWS TARGET 2014 FUND                                               A                                 
FPR00123337N80800004402008022600009820000010419000000000000DWS LIFECOMPASS INCOME FUND-A                                      A                                 
FPR00123337N82400014532008022600009290000009290000000000000DWS LIFECOMPASS PROTECT FUND-INST                                  INST                              
FPR00123337N83200020532008022600009290000009290000000000000DWS LIFECOMPASS PROTECT FUND-S                                     S                                 
FPR00123337N84000007532008022600009270000009270000000000000DWS LIFECOMPASS PROTECT FUND-C                                     C                                 
FPR00123337N85700004532008022600009280000009846100000000000DWS LIFECOMPASS PROTECT FUND-A                                     A                                 
FPR00123337N86500014402008022600009820000009820000000000000DWS LIFECOMPASS INCOME FUND-INST                                   INST                              
FPR00123337N87300020402008022600009820000009820000000000000DWS LIFECOMPASS INCOME FUND-S                                      S                                 
FPR00123337N88100007402008022600009810000009810000000000000DWS LIFECOMPASS INCOME FUND-C                                      C                                 
FPR00123337P20900023932008022600014720000014720000000000000DWS GNMA FUND-S                                                    S                                 
FPR00123337R10600004792008022600022600000023978700000000000DWS EMERGING MARKETS EQUITY FUND-A                                 A                                 
FPR00123337R20500006792008022600020900000020900000000000000DWS EMERGING MARKETS EQUITY FUND-B                                 B                                 
FPR00123337R30400007792008022600021000000021000000000000000DWS EMERGING MARKETS EQUITY FUND-C                                 C                                 
FPR00123337R50200020792008022600022880000022880000000000000DWS EMERGING MARKETS EQUITY FUND-S                                 S                                 
FPR00123337R60100004772008022600033960000036031800000000000DWS EUROPE EQUITY FUND-A                                           A                                 
FPR00123337R62700023552008022600012190000012190000000000000DWS INTERNATIONAL VALUE OPPS-S                                     S                                 
FPR00123337R63500005912008022600012200000012200000000000000DWS INTERNATIONAL VALUE OPPS-INST                                  INST                              
FPR00123337R64300007552008022600012230000012230000000000000DWS INTERNATIONAL VALUE OPPS-C                                     C                                 
FPR00123337R65000004552008022600012210000012954900000000000DWS INTERNATIONAL VALUE OPPS-A                                     A                                 
FPR00123337R70000006772008022600033600000033600000000000000DWS EUROPE EQUITY FUND-B                                           B                                 
FPR00123337R72600020742008022600074320000074320000000000000DWS LATIN AMERICA EQUITY FUND-S                                    S                                 
FPR00123337R75900007742008022600072730000072730000000000000DWS LATIN AMERICA EQUITY FUND-C                                    C                                 
FPR00123337R76700006742008022600072800000072800000000000000DWS LATIN AMERICA EQUITY FUND-B                                    B                                 
FPR00123337R77500004742008022600074150000078673700000000000DWS LATIN AMERICA EQUITY FUND-A                                    A                                 
FPR00123337R79100014682008022600065600000065600000000000000DWS INTERNATIONAL FUND-INST                                        INST                              
FPR00123337R80900007772008022600033640000033640000000000000DWS EUROPE EQUITY FUND-C                                           C                                 
FPR00123337R81700020682008022600065870000065870000000000000DWS INTERNATIONAL FUND-S                                           S                                 
FPR00123337R83300007682008022600064980000064980000000000000DWS INTERNATIONAL FUND-C                                           C                                 
FPR00123337R84100006682008022600065050000065050000000000000DWS INTERNATIONAL FUND-B                                           B                                 
FPR00123337R85800004682008022600065590000069591500000000000DWS INTERNATIONAL FUND-A                                           A                                 
FPR00123337R86600014772008022600034410000034410000000000000DWS EUROPE EQUITY FUND-INST                                        INST                              
FPR00123337R87400020772008022600034020000034020000000000000DWS EUROPE EQUITY FUND-S                                           S                                 
FPR00123337T10200020232008022600001000000001000000000099436DWS MONEY MARKET SERIES MANAGED SHARES                             MMFD                              
FPR00123337T20100024032008022600001000000001000000000099363DWS MONEY MARKET SERIES INSTITUTIONAL                              MMFD                              
FPR00123337T40900024022008022600001000000001000000000098639DWS MONEY MARKET SERIES PREMIUM-S                                  MMFD                              
FPR00123337T60700023092008022600001000000001000000000096256DWS MONEY MARKET SERIES PRIME RES-S                                MMFD                              
FPR00123337W10500001522008022600012390000012973800001737333DWS HIGH YIELD TAX FREE FUND-A                                     A                                 
FPR00123337W20400002522008022600012390000012390000001482294DWS HIGH YIELD TAX FREE FUND-B                                     B                                 
FPR00123337W30300003522008022600012390000012390000001475246DWS HIGH YIELD TAX FREE FUND-C                                     C                                 
FPR00123337W50100020082008022600012400000012400000001822298DWS HIGH YIELD TAX FREE FUND-S                                     S                                 
FPR00123337W60000005122008022600012410000012410000001815209DWS HIGH YIELD TAX FREE FUND-INST                                  INST                              
FPR00123337W70900004662008022600008810000009225100001105438DWS MANAGED MUNICIPAL BOND FUND-A                                  A                                 
FPR00123337W80800006662008022600008820000008820000000933367DWS MANAGED MUNICIPAL BOND FUND-B                                  B                                 
FPR00123337W85700005442008022600008810000008810000001162370DWS MANAGED MUNICIPAL BOND FUND-INST                               INST                              
FPR00123337W86500020662008022600008830000008830000001154422DWS MANAGED MUNICIPAL BOND FUND-S                                  S                                 
FPR00123337W88100007662008022600008810000008810000000930512DWS MANAGED MUNICIPAL BOND FUND-C                                  C                                 
FPR00123337X10300004452008022600011030000011341900001225511DWS INTERMEDIATE TAX/AMT FREE FUND-A                               A                                 
FPR00123337X20200006452008022600011040000011040000000973083DWS INTERMEDIATE TAX/AMT FREE FUND-B                               B                                 
FPR00123337X30100007452008022600011030000011030000001000600DWS INTERMEDIATE TAX/AMT FREE FUND-C                               C                                 
FPR00123337X50900020452008022600011040000011040000001270440DWS INTERMEDIATE TAX/AMT FREE FUND-S                               S                                 
FPR00123337X70700014452008022600011040000011040000001330156DWS INTERMEDIATE TAX/AMT FREE FD-INST                              INST                              
FPR00123337210100000312008022600017170000018217500000000000DWS BLUE CHIP FUND-A                                               A                                 
FPR00123337220000002312008022600015810000015810000000000000DWS BLUE CHIP FUND-B                                               B                                 
FPR00123337230900003312008022600016080000016080000000000000DWS BLUE CHIP FUND-C                                               C                                 
FPR00123337240800014312008022600017870000017870000000000000DWS BLUE CHIP FUND-INST                                            INST                              
FPR00123337250700023312008022600017170000017170000000000000DWS BLUE CHIP FUND-S                                               S                                 
FPR00123337640900004782008022600010270000010896500000000000DWS CORE PLUS ALLOCATION A                                         A                                 
FPR00123337650800007782008022600010260000010260000000000000DWS CORE PLUS ALLOCATION-C                                         C                                 
FPR00123337660700021782008022600010280000010280000000000000DWS CORE PLUS ALLOCATION-S                                         S                                 
FPR00123337670600005792008022600010270000010270000000000000DWS CORE PLUS ALLOCATION-INST                                      INST                              
FPR00123337673000014872008022600010310000010310000000000000DWS ALTERNATIVE ASSET ALLOC PLUS-INST                              INST                              
FPR00123337674800020872008022600010310000010310000000000000DWS ALTERNATIVE ASSET ALLOC PLUS FD-S                              S                                 
FPR00123337675500007872008022600010290000010290000000000000DWS ALTERNATIVE ASSET ALLOC PLUS FD-C                              C                                 
FPR00123337676300004872008022600010340000010970800000000000DWS ALTERNATIVE ASSET ALLOC PLUS FD-A                              A                                 
FPR00123337677100007292008022600009780000009780000000000000DWS DISCIPLINED LONG/SHORT GROWTH-INST                             INST                              
FPR00123337678900024292008022600009780000009780000000000000DWS DISCIPLINED LONG/SHORT GROWTH-S                                S                                 
FPR00123337679700006292008022600009680000009680000000000000DWS DISCIPLINED LONG/SHORT GROWTH-C                                C                                 
FPR00123337680500004962008022600009520000010100700000000000DWS DISCIPLINED MARKET NEUTRAL FUND-A                              A                                 
FPR00123337681300004292008022600009760000010355400000000000DWS DISCIPLINED LONG/SHORT GROWTH-A                                A                                 
FPR00123337682100007312008022600009530000009530000000000000DWS DISCIPLINED LONG/SHORT VALUE-INST                              INST                              
FPR00123337683900024312008022600009540000009540000000000000DWS DISCIPLINED LONG/SHORT VALUE-S                                 S                                 
FPR00123337684700006312008022600009530000009530000000000000DWS DISCIPLINED LONG/SHORT VALUE-C                                 C                                 
FPR00123337685400004312008022600009540000010122000000000000DWS DISCIPLINED LONG/SHORT VALUE-A                                 A                                 
FPR00123337686200005922008022600009520000009520000000000000DWS DISCIPLINED MARKET NEUTRAL-INST                                INST                              
FPR00123337687000020962008022600009520000009520000000000000DWS DISCIPLINED MARKET NEUTRAL-S                                   S                                 
FPR00123337688800007962008022600009500000009500000000000000DWS DISCIPLINED MARKET NEUTRAL-C                                   C                                 
FPR00123337910600000832008022600039120000041506600000000000DWS GLOBAL OPPORTUNITIES FUND-A                                    A                                 
FPR00123337920500002832008022600035710000035710000000000000DWS GLOBAL OPPORTUNITIES FUND-B                                    B                                 
FPR00123337930400003832008022600035900000035900000000000000DWS GLOBAL OPPORTUNITIES FUND-C                                    C                                 
FPR00123337950200020102008022600040130000040130000000000000DWS GLOBAL OPPORTUNITIES FUND-S                                    S                                 
FPR00123337960100004762008022600012100000012670100000000000DWS EMERGING MARKETS FIXED INCOME FD-A                             A                                 
FPR00123337970000006762008022600012130000012130000000000000DWS EMERGING MARKETS FIXED INCOME FD-B                             B                                 
FPR00123337975900020072008022600026890000026890000000000000DWS GLOBAL THEMATIC FUND-S                                         S                                 
FPR00123337976700015122008022600027020000027020000000000000DWS GLOBAL THEMATIC FUND-R                                         R                                 
FPR00123337978300007072008022600026440000026440000000000000DWS GLOBAL THEMATIC FUND-C                                         C                                 
FPR00123337979100006072008022600026330000026330000000000000DWS GLOBAL THEMATIC FUND-B                                         B                                 
FPR00123337980900007762008022600012120000012120000000000000DWS EMERGING MARKETS FIXED INCOME FD-C                             C                                 
FPR00123337981700004072008022600027010000028657800000000000DWS GLOBAL THEMATIC FUND-A                                         A                                 
FPR00123337982500020612008022600010250000010250000000000000DWS GLOBAL BOND FUND-S                                             S                                 
FPR00123337984100007612008022600010260000010260000000000000DWS GLOBAL BOND FUND-C                                             C                                 
FPR00123337985800006612008022600010270000010270000000000000DWS GLOBAL BOND FUND-B                                             B                                 
FPR00123337986600004612008022600010260000010743400000000000DWS GLOBAL BOND FUND-A                                             A                                 
FPR00123337987400020762008022600012100000012100000000000000DWS EMERGING MARKETS FIXED INCOME FD-S                             S                                 
FPR00123338A10200000012008022600011440000012137900000000000DWS TECHNOLOGY FUND-A                                              A                                 
FPR00123338A20100002012008022600009450000009450000000000000DWS TECHNOLOGY FUND-B                                              B                                 
FPR00123338A30000003012008022600009740000009740000000000000DWS TECHNOLOGY FUND-C                                              C                                 
FPR00123338A40900023132008022600011450000011450000000000000DWS TECHNOLOGY FUND-S                                              S                                 
FPR00123338A50800005112008022600011850000011850000000000000DWS TECHNOLOGY FUND-INST                                           INST                              
FPR00123338C10800000182008022600008370000008764300000000000DWS U.S. GOVERNMENT SECURITIES FUND-A                              A                                 
FPR00123338C20700002182008022600008360000008360000000000000DWS U.S. GOVERNMENT SECURITIES FUND-B                              B                                 
FPR00123338C30600003182008022600008380000008380000000000000DWS U.S. GOVERNMENT SECURITIES FUND-C                              C                                 
FPR00123338C40500000982008022600008370000008370000000000000DWS U.S. GOVERNMENT SECURITIES FUND-S                              S                                 
FPR00123338C50400014182008022600008360000008360000000000000DWS U.S. GOVERNMENT SECURITIES FD-INST                             INST                              
FPR00123338F10100000862008022600020360000021602100000000000DWS LARGE CAP VALUE FUND-A                                         A                                 
FPR00123338F20000002862008022600020390000020390000000000000DWS LARGE CAP VALUE FUND-B                                         B                                 
FPR00123338F30900003862008022600020370000020370000000000000DWS LARGE CAP VALUE FUND-C                                         C                                 
FPR00123338F60600023122008022600020360000020360000000000000DWS LARGE CAP VALUE FUND-S                                         S                                 
FPR00123338F65500014442008022600011170000011170000000000000DWS DREMAN CONCENTRATED VALUE FD-INST                              INST                              
FPR00123338F66300007442008022600011140000011140000000000000DWS DREMAN CONCENTRATED VALUE FUND-C                               C                                 
FPR00123338F67100006442008022600011150000011150000000000000DWS DREMAN CONCENTRATED VALUE FUND-B                               B                                 
FPR00123338F68900004442008022600011140000011819600000000000DWS DREMAN CONCENTRATED VALUE FUND-A                               A                                 
FPR00123338F69700014172008022600011480000011480000000000000DWS DREMAN MID CAP VALUE FUND-INST                                 INST                              
FPR00123338F70500014862008022600020400000020400000000000000DWS LARGE CAP VALUE FUND-INST                                      INST                              
FPR00123338F71300021172008022600011460000011460000000000000DWS DREMAN MID CAP VALUE FUND-S                                    S                                 
FPR00123338F72100007172008022600011430000011430000000000000DWS DREMAN MID CAP VALUE FUND-C                                    C                                 
FPR00123338F73900006172008022600011450000011450000000000000DWS DREMAN MID CAP VALUE FUND-B                                    B                                 
FPR00123338F74700004172008022600011460000012159100000000000DWS DREMAN MID CAP VALUE FUND-A                                    A                                 
FPR00123338F75400005452008022600034140000034140000000000000DWS DREMAN SMALL CAP VALUE FUND-INST                               INST                              
FPR00123338F76200023892008022600033960000033960000000000000DWS DREMAN SMALL CAP VALUE FUND-S                                  S                                 
FPR00123338F79600003882008022600031070000031070000000000000DWS DREMAN SMALL CAP VALUE FUND-C                                  C                                 
FPR00123338F80400000872008022600045340000048106100000000000DWS DREMAN HIGH RETURN EQUITY FUND-A                               A                                 
FPR00123338F81200002882008022600030580000030580000000000000DWS DREMAN SMALL CAP VALUE FUND-B                                  B                                 
FPR00123338F82000000882008022600033620000035671000000000000DWS DREMAN SMALL CAP VALUE FUND-A                                  A                                 
FPR00123338F83800005392008022600045330000045330000000000000DWS DREMAN HIGH RETURN EQUITY FD-INST                              INST                              
FPR00123338F84600023872008022600045250000045250000000000000DWS DREMAN HIGH RETURN EQUITY FUND-S                               S                                 
FPR00123338F86100015062008022600045190000045190000000000000DWS DREMAN HIGH RETURN EQUITY FUND-R                               R                                 
FPR00123338F87900003872008022600045220000045220000000000000DWS DREMAN HIGH RETURN EQUITY FUND-C                               C                                 
FPR00123338F88700002872008022600045180000045180000000000000DWS DREMAN HIGH RETURN EQUITY FUND-B                               B                                 
FPR00123338J10300004982008022600053480000056742700000000000DWS CAPITAL GROWTH FUND-A                                          A                                 
FPR00123338J20200006982008022600051320000051320000000000000DWS CAPITAL GROWTH FUND-B                                          B                                 
FPR00123338J30100007982008022600050940000050940000000000000DWS CAPITAL GROWTH FUND-C                                          C                                 
FPR00123338J50900023982008022600053830000053830000000000000DWS CAPITAL GROWTH FUND-S                                          S                                 
FPR00123338J60800015082008022600053410000053410000000000000DWS CAPITAL GROWTH FUND-R                                          R                                 
FPR00123338J64000023392008022600017080000017080000000000000DWS SMALL CAP CORE FUND-S                                          S                                 
FPR00123338J66500007392008022600015350000015350000000000000DWS SMALL CAP CORE FUND-C                                          C                                 
FPR00123338J67300006392008022600015290000015290000000000000DWS SMALL CAP CORE FUND-B                                          B                                 
FPR00123338J68100004392008022600016620000017633900000000000DWS SMALL CAP CORE FUND-A                                          A                                 
FPR00123338J69900023012008022600018380000018380000000000000DWS S&P 500 INDEX FUND-S                                           S                                 
FPR00123338J70700005642008022600053810000053810000000000000DWS CAPITAL GROWTH FUND-INST                                       INST                              
FPR00123338J72300013012008022600018270000018270000000000000DWS S&P 500 INDEX FUND-C                                           C                                 
FPR00123338J73100012012008022600018270000018270000000000000DWS S&P 500 INDEX FUND-B                                           B                                 
FPR00123338J74900010012008022600018330000019193700000000000DWS S&P 500 INDEX FUND-A                                           A                                 
FPR00123338J75600014692008022600029070000029070000000000000DWS LARGE COMPANY GROWTH FUND-INST                                 INST                              
FPR00123338J77200020602008022600028910000028910000000000000DWS LARGE COMPANY GROWTH FUND-S                                    S                                 
FPR00123338J79800007692008022600027050000027050000000000000DWS LARGE COMPANY GROWTH FUND-C                                    C                                 
FPR00123338J80600004642008022600017050000018090100000000000DWS GROWTH & INCOME FUND-A                                         A                                 
FPR00123338J81400006692008022600027010000027010000000000000DWS LARGE COMPANY GROWTH FUND-B                                    B                                 
FPR00123338J82200004692008022600028420000030153800000000000DWS LARGE COMPANY GROWTH FUND-A                                    A                                 
FPR00123338J83000005502008022600017220000017220000000000000DWS GROWTH & INCOME FUND-INST                                      INST                              
FPR00123338J85500020642008022600017190000017190000000000000DWS GROWTH & INCOME FUND-S                                         S                                 
FPR00123338J87100007642008022600016610000016610000000000000DWS GROWTH & INCOME FUND-C                                         C                                 
FPR00123338J88900006642008022600016540000016540000000000000DWS GROWTH & INCOME FUND-B                                         B                                 
FPR00123338K10000004102008022600012720000013496000000000000DWS ENHANCED S&P 500 INDEX FUND-A                                  A                                 
FPR00123338K20900006102008022600012440000012440000000000000DWS ENHANCED S&P 500 INDEX FUND-B                                  B                                 
FPR00123338K30800007102008022600012470000012470000000000000DWS ENHANCED S&P 500 INDEX FUND-C                                  C                                 
FPR00123338K40700015142008022600012570000012570000000000000DWS ENHANCED S&P 500 INDEX FUND-R                                  R                                 
FPR00123338K50600023102008022600012590000012590000000000000DWS ENHANCED S&P 500 INDEX FUND-S                                  S                                 
FPR00123338K70400007902008022600011260000011260000000000000DWS EQUITY INCOME FUND-INST                                        INST                              
FPR00123338K80300002902008022600011210000011893800000000000DWS EQUITY INCOME FUND-A                                           A                                 
FPR00123338K86000024902008022600011240000011240000000000000DWS EQUITY INCOME FUND-S                                           S                                 
FPR00123338K87800006902008022600011200000011200000000000000DWS EQUITY INCOME FUND-C                                           C                                 
FPR00123338K88600003902008022600011210000011210000000000000DWS EQUITY INCOME FUND-B                                           B                                 
FPR00123339A10100000062008022600001000000001000000000090643DWS MM PRIME SERIES-DWS MONEY MRKT FD                              MMFD                              
FPR00123339A40800004212008022600001000000001000000000079076DWS CASH INVESTMENT TRUST-A                                        A                                 
FPR00123339A50700006212008022600001000000001000000000058476DWS CASH INVESTMENT TRUST-B                                        B                                 
FPR00123339A60600007212008022600001000000001000000000060233DWS CASH INVESTMENT TRUST-C                                        C                                 
FPR00123339A70500020212008022600001000000001000000000087694DWS CASH INVESTMENT TRUST-S                                        S                                 
FPR00123339C20600005652008022600156800000156800000000000000DWS EQUITY 500 INDEX FUND-INST                                     INST                              
FPR00123339C30500008152008022600155230000155230000000000000DWS EQUITY 500 INDEX FUND-S                                        S                                 
FPR00123339C40400008172008022600016200000016200000000000000DWS COMMODITY SECURITIES FUND-INST                                 INST                              
FPR00123339C50300004852008022600016200000017188300000000000DWS COMMODITY SECURITIES FUND-A                                    A                                 
FPR00123339C60200006852008022600015940000015940000000000000DWS COMMODITY SECURITIES FUND-B                                    B                                 
FPR00123339C70100007852008022600015940000015940000000000000DWS COMMODITY SECURITIES FUND-C                                    C                                 
FPR00123339C75000005482008022600010270000010270000001519521DWS U.S. BOND INDEX FUND-INST                                      INST                              
FPR00123339C76800005582008022600016350000016350000000000000DWS EAFE EQUITY INDEX FUND-INST                                    INST                              
FPR00123339C77600005382008022600001000000001000000000101350DAILY ASSETS FUND-INST                                             INMM                              
FPR00123339C80000020852008022600016210000016210000000000000DWS COMMODITY SECURITIES FUND-S                                    S                                 
FPR00123339C82600005002008022600001000000001000000000098010CASH RESERVES FUND-INST                                            INMM                              
FPR00123339C83400005412008022600001000000001000000000096646CASH MANAGEMENT FUND-INST                                          INMM                              
FPR00123339C84200008542008022600010350000010350000000328373DWS INFLATION PROTECTED PLUS FUND-INST                             INST                              
FPR00123339C85900023542008022600010350000010350000000313316DWS INFLATION PROTECTED PLUS FUND-S                                S                                 
FPR00123339C86700007542008022600010410000010410000000046671DWS INFLATION PROTECTED PLUS FUND-C                                C                                 
FPR00123339C87500006542008022600010400000010400000000062329DWS INFLATION PROTECTED PLUS FUND-B                                B                                 
FPR00123339C88300004542008022600010360000010652900000259369DWS INFLATION PROTECTED PLUS FUND-A                                A                                 
FPR00123339E10300005592008022600009940000009940000000000000DWS INTERNATIONAL SELECT EQUITY-INST                               INST                              
FPR00123339E40000004992008022600010210000010832800000000000DWS INTERNATIONAL SELECT EQUITY FUND-A                             A                                 
FPR00123339E44200005952008022600019080000019080000000000000DWS RREEF REAL ESTATE SECURITIES-INST                              INST                              
FPR00123339E45900023252008022600019090000019090000000000000DWS RREEF REAL ESTATE SECURITIES FD-S                              S                                 
FPR00123339E46700015022008022600019060000019060000000000000DWS RREEF REAL ESTATE SECURITIES FD-R                              R                                 
FPR00123339E47500007252008022600019050000019050000000000000DWS RREEF REAL ESTATE SECURITIES FD-C                              C                                 
FPR00123339E48300006252008022600019000000019000000000000000DWS RREEF REAL ESTATE SECURITIES FD-B                              B                                 
FPR00123339E49100004252008022600019040000020201500000000000DWS RREEF REAL ESTATE SECURITIES FD-A                              A                                 
FPR00123339E50900006992008022600009870000009870000000000000DWS INTERNATIONAL SELECT EQUITY FUND-B                             B                                 
FPR00123339E51700008122008022600010140000010140000000000000DWS LIFECYCLE LONG RANGE FUND-S                                    S                                 
FPR00123339E52500005672008022600010600000010600000000000000DWS LIFECYCLE LONG RANGE FUND-INST                                 INST                              
FPR00123339E54100023942008022600010540000010540000001466670DWS CORE FIXED INCOME FUND-S                                       S                                 
FPR00123339E56600005892008022600015360000015360000000000000DWS MICRO CAP FUND-INST                                            INST                              
FPR00123339E57400023902008022600014840000014840000000000000DWS MICRO CAP FUND-S                                               S                                 
FPR00123339E58200007892008022600013790000013790000000000000DWS MICRO CAP FUND-C                                               C                                 
FPR00123339E59000006892008022600013790000013790000000000000DWS MICRO CAP FUND-B                                               B                                 
FPR00123339E60800007992008022600009880000009880000000000000DWS INTERNATIONAL SELECT EQUITY FUND-C                             C                                 
FPR00123339E61600004892008022600014750000015649800000000000DWS MICRO CAP FUND-A                                               A                                 
FPR00123339E64000005962008022600006920000006920000001780554DWS HIGH INCOME PLUS FUND-INST                                     INST                              
FPR00123339E66500021002008022600006930000006930000001748012DWS HIGH INCOME PLUS FUND-S                                        S                                 
FPR00123339E67300007162008022600006930000006930000001571785DWS HIGH INCOME PLUS FUND-C                                        C                                 
FPR00123339E68100006162008022600006930000006930000001560307DWS HIGH INCOME PLUS FUND-B                                        B                                 
FPR00123339E69900004162008022600006920000007246000001715153DWS HIGH INCOME PLUS FUND-A                                        A                                 
FPR00123339E70700023992008022600009930000009930000000000000DWS INTERNATIONAL SELECT EQUITY FUND-S                             S                                 
FPR00123339E72300005362008022600010150000010150000001054524DWS SHORT-TERM MUNICIPAL BOND FD INST                              INST                              
FPR00123339E73100023362008022600010140000010140000001051088DWS SHORT-TERM MUNICIPAL BOND FUND-S                               S                                 
FPR00123339E74900007362008022600010150000010150000000776174DWS SHORT-TERM MUNICIPAL BOND FUND-C                               C                                 
FPR00123339E75600006362008022600010150000010150000000793133DWS SHORT-TERM MUNICIPAL BOND FUND-B                               B                                 
FPR00123339E76400004362008022600010150000010357100000994983DWS SHORT-TERM MUNICIPAL BOND FUND-A                               A                                 
FPR00123339E77200005572008022600009920000009920000001318415DWS SHORT DURATION FUND-INST                                       INST                              
FPR00123339E78000023342008022600009910000009910000001316772DWS SHORT DURATION FUND-S                                          S                                 
FPR00123339E79800007342008022600009900000009900000001040023DWS SHORT DURATION FUND-C                                          C                                 
FPR00123339E80600015012008022600009940000009940000000000000DWS INTERNATIONAL SELECT EQUITY FUND-R                             R                                 
FPR00123339E81400006342008022600009910000009910000001048162DWS SHORT DURATION FUND-B                                          B                                 
FPR00123339E82200004342008022600009910000010190200001261164DWS SHORT DURATION FUND-A                                          A                                 
FPR00123339E84800005932008022600010550000010550000001467819DWS CORE FIXED INCOME FUND-INST                                    INST                              
FPR00123339E85500015042008022600010600000010600000001331117DWS CORE FIXED INCOME FUND-R                                       R                                 
FPR00123339E86300007932008022600010540000010540000001177204DWS CORE FIXED INCOME FUND-C                                       C                                 
FPR00123339E87100006932008022600010540000010540000001179210DWS CORE FIXED INCOME FUND-B                                       B                                 
FPR00123339E88900004932008022600010550000011047100001396649DWS CORE FIXED INCOME FUND-A                                       A                                 
FPR00123339G10800004322008022600020950000022228100000000000DWS COMMUNICATIONS FUND-A                                          A                                 
FPR00123339G20700006322008022600019190000019190000000000000DWS COMMUNICATIONS FUND-B                                          B                                 
FPR00123339G30600007322008022600019200000019200000000000000DWS COMMUNICATIONS FUND-C                                          C                                 
FPR00123339G40500005322008022600021470000021470000000000000DWS COMMUNICATIONS FUND-INST                                       INST                              
FPR00123339H10600004092008022600024220000025697600000000000DWS EQUITY PARTNERS FUND-A                                         A                                 
FPR00123339H20500006092008022600022310000022310000000000000DWS EQUITY PARTNERS FUND-B                                         B                                 
FPR00123339H30400007092008022600022340000022340000000000000DWS EQUITY PARTNERS FUND-C                                         C                                 
FPR00123339H40300005092008022600024430000024430000000000000DWS EQUITY PARTNERS FUND-INST                                      INST                              
FPR00123339J10200004152008022600014520000015405800000000000DWS VALUE BUILDER FUND-A                                           A                                 
FPR00123339J20100006152008022600014500000014500000000000000DWS VALUE BUILDER FUND-B                                           B                                 
FPR00123339J30000007152008022600014530000014530000000000000DWS VALUE BUILDER FUND-C                                           C                                 
FPR00123339J40900005352008022600014760000014760000000000000DWS VALUE BUILDER FUND-INST                                        INST                              
FPR00123339K10900004602008022600011250000011936300000000000DWS JAPAN EQUITY FUND-A                                            A                                 
FPR00123339K20800006602008022600010990000010990000000000000DWS JAPAN EQUITY FUND-B                                            B                                 
FPR00123339K30700007602008022600011000000011000000000000000DWS JAPAN EQUITY FUND-C                                            C                                 
FPR00123339K40600023692008022600011310000011310000000000000DWS JAPAN EQUITY FUND-S                                            S                                 
FPR00146147320900000432008022600001000000001000000000064865ICT TREASURY PORTFOLIO INST SHARES                                 CPG                               
FPR00146147350600003432008022600001000000001000000000049609PREMIER MM SHARES TREASURY PORTFOLIO                               CPG                               
FPR00146147386000003542008022600001000000001000000000056397ICT TREASURY-INVESTMENT                                            INV                               
FPR00146147387800020542008022600001000000001000000000062411DWS U.S. TREASURY MONEY FUND-S                                     S                                 
FPR00174723810300004032008022600001000000001000000000099027DWS STABLE VALUE TRUST A                                           A                                 
FPR00174723820200015032008022600001000000001000000000091521DWS STABLE VALUE TRUST R                                           R                                 
FPR00187693410000000252008022600001000000001000000000051725TAX-EXEMPT CALIFORNIA MONEY MARKET FD                              CPG                               
RTR001PRICE REFRESHER000000376                                                                                                                                  
