RHR001PRICE REFRESHER2008022720080227*WSTVU* E                                                                                                                  
FPR001WSTVUMMM200000002008022702108383802108383800000000000Transamerica Money Market             000000000000000                                                
FPR001WSTVUBND200000002008022703392959403392959400000000000JPMorgan Core Bond                    000000000000000                                                
FPR001WSTVUGRO200000002008022708153271108153271100000000000Janus Growth                          000000000000000                                                
FPR001WSTVUGLO200000002008022703074961703074961700000000000Templeton Transamerica Global         000000000000000                                                
FPR001WSTVUSTR200000002008022702292486802292486800000000000LKCM Strategic Total Return           000000000000000                                                
FPR001WSTVUEGR200000002008022704420175704420175700000000000Van Kampen Mid-Cap Growth             000000000000000                                                
FPR001WSTVUAGG200000002008022702154590202154590200000000000Alger Aggressive Growth               000000000000000                                                
FPR001WSTVUFGI200000002008022703321144303321144300000000000Federated Market Opportunity          000000000000000                                                
FPR001WSTVUAAL200000002008022702497334702497334700000000000Transamerica Value Balanced           000000000000000                                                
FPR001WSTVUVEQ200000002008022702639048802639048800000000000BlackRock Large Cap Value             000000000000000                                                
FPR001WSTVUSEI200000002008022701467886301467886300000000000MFS International Equity              000000000000000                                                
FPR001WSTVUUSE200000002008022701540582901540582900000000000GE U.S. Equity Subaccount             000000000000000                                                
FPR001WSTVUTAV200000002008022702874221802874221800000000000Third Avenue Value                    000000000000000                                                
FPR001WSTVURES200000002008022702935561202935561200000000000Clarion Global Real Estate Securities 000000000000000                                                
FPR001WSTVUGSG200000002008022701089815701089815700000000000Marsico Growth                        000000000000000                                                
FPR001WSTVUGSS200000002008022700994037600994037600000000000MunderNet50                           000000000000000                                                
FPR001WSTVUPDG200000002008022701303464701303464700000000000T Rowe Price Equity Income            000000000000000                                                
FPR001WSTVUPSC200000002008022701243274501243274500000000000T Rowe Price Small Cap                000000000000000                                                
FPR001WSTVUSAP200000002008022701608057701608057700000000000Legg Mason Partners All Cap           000000000000000                                                
FPR001WSTVUBMC200000002008022700763574000763574000000000000PBHG Mid Cap Growth                   000000000000000                                                
FPR001WSTVUDMC200000002008022701701746901701746900000000000JPMorgan Mid Cap Value                000000000000000                                                
FPR001WSTVUGCA200000002008022701045312701045312700000000000Great Companies - America             000000000000000                                                
FPR001WSTVUGCT200000002008022700435770600435770600000000000Transamerica Science & Technology     000000000000000                                                
FPR001WSTVUGCG200000002008022700682913900682913900000000000Templeton Great Companies - Global    000000000000000                                                
FPR001WSTVUVIG200000002008022700909130800909130800000000000Fidelity VIP III Growth Opportunities 000000000000000                                                
FPR001WSTVUVIC200000002008022701445197501445197500000000000Fidelity VIP II Contrafund            000000000000000                                                
FPR001WSTVUFEI200000002008022701427154701427154700000000000Fidelity VIP Equity-Income            000000000000000                                                
FPR001WSTVULCA200000002008022701404942601404942600000000000Asset Allocation - Conservative       000000000000000                                                
FPR001WSTVULMA200000002008022701460727301460727300000000000Asset Allocation - Moderate           000000000000000                                                
FPR001WSTVUMAA200000002008022701507772101507772100000000000Asset Allocation - Moderate Growth    000000000000000                                                
FPR001WSTVULAA200000002008022701532343001532343000000000000Asset Allocation - Growth             000000000000000                                                
FPR001WSTVULPT200000002008022701304598301304598300000000000PIMCO Total Return                    000000000000000                                                
FPR001WSTVULJB200000002008022701396973701396973700000000000Transamerica Balanced                 000000000000000                                                
FPR001WSTVULTC200000002008022701586251201586251200000000000Transamerica Convertible Securities   000000000000000                                                
FPR001WSTVUTAG200000002008022701632988401632988400000000000Transamerica Equity                   000000000000000                                                
FPR001WSTVULTS200000002008022701560099601560099600000000000Transamerica Growth Opportunities     000000000000000                                                
FPR001WSTVUCGV200000002008022701350771901350771900000000000Capital Guardian Value                000000000000000                                                
FPR001WSTVUTUS200000002008022701205531601205531600000000000Transamerica U.S. Government Securitie000000000000000                                                
FPR001WSTVUEEI200000002008022701306624501306624500000000000JPMorgan Enhanced Index               000000000000000                                                
FPR001WSTVUGUS200000002008022701284126101284126100000000000Capital Guardian US Equity            000000000000000                                                
FPR001WSTVUAUSG00000002008022700986833900986833900000000000Access US Government Money Market     000000000000000                                                
FPR001WSTVUMFS100000002008022701293162301293162300000000000MFS High Yield                        000000000000000                                                
FPR001WSTVUPT3000000002008022701152507301152507300000000000Potomac Dow 30 Plus                   000000000000000                                                
FPR001WSTVUPTMC00000002008022701343901401343901400000000000Potomac OTC Plus                      000000000000000                                                
FPR001WSTVUREIT00000002008022701537478201537478200000000000Wells S&P REIT Index                  000000000000000                                                
FPR001WSTVUAUS300000002008022700993595600993595600000000000Access US Government Money Market     000000000000000                                                
FPR001WSTVULAA300000002008022701549830301549830300000000000Asset Allocation - Growth             000000000000000                                                
FPR001WSTVUBND300000002008022701181077701181077700000000000JPMorgan Core Bond                    000000000000000                                                
FPR001WSTVUCGV300000002008022701391989801391989800000000000Capital Guardian Value                000000000000000                                                
FPR001WSTVURES300000002008022702045423902045423900000000000Clarion Global Real Estate Securities 000000000000000                                                
FPR001WSTVULCA300000002008022701334043201334043200000000000Asset Allocation - Conservative       000000000000000                                                
FPR001WSTVUEGR300000002008022701418497801418497800000000000Van Kampen Mid-Cap Growth             000000000000000                                                
FPR001WSTVUGLO300000002008022701515467401515467400000000000Templeton Transamerica Global         000000000000000                                                
FPR001WSTVUFGI300000002008022701251201001251201000000000000Federated Market Opportunity          000000000000000                                                
FPR001WSTVUGCA300000002008022701164446001164446000000000000Great Companies - America             000000000000000                                                
FPR001WSTVUGCG300000002008022701069314301069314300000000000Templeton Great Companies - Global    000000000000000                                                
FPR001WSTVUGCT300000002008022701181639701181639700000000000Transamerica Science & Technology     000000000000000                                                
FPR001WSTVUGRO300000002008022701297155101297155100000000000Janus Growth                          000000000000000                                                
FPR001WSTVULJB300000002008022701369069901369069900000000000Transamerica Balanced                 000000000000000                                                
FPR001WSTVUEEI300000002008022701353157901353157900000000000JPMorgan Enhanced Index               000000000000000                                                
FPR001WSTVUGSG300000002008022701375180201375180200000000000Marsico Growth                        000000000000000                                                
FPR001WSTVUMFS300000002008022701233844401233844400000000000MFS High Yield                        000000000000000                                                
FPR001WSTVUMMM300000002008022701114280901114280900000000000Transamerica Money Market             000000000000000                                                
FPR001WSTVUGSS300000002008022701260257501260257500000000000MunderNet50                           000000000000000                                                
FPR001WSTVUMAA300000002008022701492611301492611300000000000Asset Allocation - Moderate Growth    000000000000000                                                
FPR001WSTVULMA300000002008022701414952701414952700000000000Asset Allocation - Moderate           000000000000000                                                
FPR001WSTVUVEQ300000002008022701694125801694125800000000000BlackRock Large Cap Value             000000000000000                                                
FPR001WSTVULPT300000002008022701212126201212126200000000000PIMCO Total Return                    000000000000000                                                
FPR001WSTVUPT3300000002008022701028339101028339100000000000Potomac Dow 30 Plus                   000000000000000                                                
FPR001WSTVUPTM300000002008022701103471801103471800000000000Potomac OTC Plus                      000000000000000                                                
FPR001WSTVUSAP300000002008022701355569801355569800000000000Legg Mason Partners All Cap           000000000000000                                                
FPR001WSTVULTC300000002008022701444044501444044500000000000Transamerica Convertible Securities   000000000000000                                                
FPR001WSTVUTAG300000002008022701553160501553160500000000000Transamerica Equity                   000000000000000                                                
FPR001WSTVULTS300000002008022701599342901599342900000000000Transamerica Growth Opportunities     000000000000000                                                
FPR001WSTVUTAV300000002008022701707615101707615100000000000Third Avenue Value                    000000000000000                                                
FPR001WSTVUPDG300000002008022701468592401468592400000000000T Rowe Price Equity Income            000000000000000                                                
FPR001WSTVUPSC300000002008022701290438201290438200000000000T Rowe Price Small Cap                000000000000000                                                
FPR001WSTVUTUS300000002008022701146545301146545300000000000Transamerica U.S. Government Securitie000000000000000                                                
FPR001WSTVUAAL300000002008022701386065701386065700000000000Transamerica Value Balanced           000000000000000                                                
FPR001WSTVUVIP300000002008022701355854401355854400000000000Fidelity VIP Index 500                000000000000000                                                
FPR001WSTVUREI300000002008022701331205101331205100000000000Wells S&P REIT Index                  000000000000000                                                
FPR001WSTVUPMCP00000002008022701089519101089519100000000000Potomac Mid Cap Plus                  000000000000000                                                
FPR001WSTVUPTSM00000002008022701064437601064437600000000000Potomac Small Cap Plus                000000000000000                                                
FPR001WSTVUPTUS00000002008022700808944800808944800000000000Potomac U.S./Short                    000000000000000                                                
FPR001WSTVUV50000000002008022701276433101276433100000000000Fidelity VIP Index 500                000000000000000                                                
FPR001WSTVUDMC300000002008022701424017101424017100000000000JPMorgan Mid Cap Value                000000000000000                                                
FPR001WSTVUTSMC00000002008022701812942401812942400000000000Transamerica Small/Mid Cap Value      000000000000000                                                
FPR001WSTVUTSMX00000002008022701823152401823152400000000000Transamerica Small/Mid Cap Value      000000000000000                                                
FPR001WSTVUIMG200000002008022701078066901078066900000000000International Moderate Growth         000000000000000                                                
FPR001WSTVUIMG300000002008022701081000501081000500000000000International Moderate Growth         000000000000000                                                
FPR001WSTVUPRB200000002008022701103660801103660800000000000ProFund VP Bull                       000000000000000                                                
FPR001WSTVUPRO200000002008022701148431301148431300000000000ProFund VP NASDAQ-100                 000000000000000                                                
FPR001WSTVUPSM200000002008022701021586201021586200000000000ProFund VP Small-Cap                  000000000000000                                                
FPR001WSTVUPSH200000002008022700970271800970271800000000000ProFund VP Short Small-Cap            000000000000000                                                
FPR001WSTVUPRM200000002008022701049103801049103800000000000ProFund VP Money Market               000000000000000                                                
FPR001WSTVUPRB300000002008022701106464301106464300000000000ProFund VP Bull                       000000000000000                                                
FPR001WSTVUPRO300000002008022701151347301151347300000000000ProFund VP NASDAQ-100                 000000000000000                                                
FPR001WSTVUPSM300000002008022701024180901024180900000000000ProFund VP Small-Cap                  000000000000000                                                
FPR001WSTVUPSH300000002008022700972737100972737100000000000ProFund VP Short Small-Cap            000000000000000                                                
FPR001WSTVUPRM300000002008022701052049001052049000000000000ProFund VP Money Market               000000000000000                                                
FPR001WSTVULAA400000002008022701064146801064146800000000000Asset Allocation - Growth             000000000000000                                                
FPR001WSTVUBND400000002008022701093236501093236500000000000JPMorgan Core Bond                    000000000000000                                                
FPR001WSTVUPRO400000002008022701028809001028809000000000000ProFund VP NASDAQ-100                 000000000000000                                                
FPR001WSTVUEGR400000002008022701192099401192099400000000000Van Kampen Mid-Cap Growth             000000000000000                                                
FPR001WSTVUCGV400000002008022700933443300933443300000000000Capital Guardian Value                000000000000000                                                
FPR001WSTVURES400000002008022700973906300973906300000000000Clarion Global Real Estate Securities 000000000000000                                                
FPR001WSTVULCA400000002008022701071306801071306800000000000Asset Allocation - Conservative       000000000000000                                                
FPR001WSTVUFGI400000002008022701032401401032401400000000000Federated Market Opportunity          000000000000000                                                
FPR001WSTVUGCT400000002008022701089514901089514900000000000Transamerica Science & Technology     000000000000000                                                
FPR001WSTVUEEI400000002008022701021850501021850500000000000JPMorgan Enhanced Index               000000000000000                                                
FPR001WSTVUGSG400000002008022701137264601137264600000000000Marsico Growth                        000000000000000                                                
FPR001WSTVUMFS400000002008022701022008601022008600000000000MFS High Yield                        000000000000000                                                
FPR001WSTVUMMM400000002008022701064615901064615900000000000Transamerica Money Market             000000000000000                                                
FPR001WSTVUGSS400000002008022701088383601088383600000000000MunderNet50                           000000000000000                                                
FPR001WSTVUMAA400000002008022701068748901068748900000000000Asset Allocation - Moderate Growth    000000000000000                                                
FPR001WSTVULMA400000002008022701080157301080157300000000000Asset Allocation - Moderate           000000000000000                                                
FPR001WSTVUVEQ400000002008022701033088501033088500000000000BlackRock Large Cap Value             000000000000000                                                
FPR001WSTVULPT400000002008022701112322901112322900000000000PIMCO Total Return                    000000000000000                                                
FPR001WSTVUSAP400000002008022701024153701024153700000000000Legg Mason Partners All Cap           000000000000000                                                
FPR001WSTVULTC400000002008022701142620601142620600000000000Transamerica Convertible Securities   000000000000000                                                
FPR001WSTVULTS400000002008022701131854701131854700000000000Transamerica Growth Opportunities     000000000000000                                                
FPR001WSTVUTAV400000002008022701014158301014158300000000000Third Avenue Value                    000000000000000                                                
FPR001WSTVUGLO400000002008022701097207101097207100000000000Templeton Transamerica Global         000000000000000                                                
FPR001WSTVULJB400000002008022701057123701057123700000000000Transamerica Balanced                 000000000000000                                                
FPR001WSTVUPDG400000002008022701032247001032247000000000000T Rowe Price Equity Income            000000000000000                                                
FPR001WSTVUPSC400000002008022701036257801036257800000000000T Rowe Price Small Cap                000000000000000                                                
FPR001WSTVUTSM400000002008022701266314901266314900000000000Transamerica Small/Mid Cap Value      000000000000000                                                
FPR001WSTVUTUS400000002008022701078260801078260800000000000Transamerica US Government Securities 000000000000000                                                
FPR001WSTVUIMG400000002008022701103669801103669800000000000International Moderate Growth         000000000000000                                                
FPR001WSTVUPRB400000002008022701003896401003896400000000000ProFund VP Bull                       000000000000000                                                
FPR001WSTVUPRM400000002008022701048321201048321200000000000ProFund VP Money Market               000000000000000                                                
FPR001WSTVUPSM400000002008022700939956700939956700000000000ProFund VP Small-Cap                  000000000000000                                                
FPR001WSTVUPSH400000002008022701092647801092647800000000000ProFund VP Short Small-Cap            000000000000000                                                
FPR001WSTVUAAL400000002008022701053940301053940300000000000Transamerica Value Balanced           000000000000000                                                
FPR001WSTVUVIP400000002008022701023712101023712100000000000Fidelity VIP Index 500                000000000000000                                                
FPR001WSTVUMMM800000002008022701014739101014739100000000000Transamerica Money Market             000000000000000                                                
FPR001WSTVUAAL800000002008022700989305200989305200000000000Transamerica Value Balanced           000000000000000                                                
FPR001WSTVULJB800000002008022700992547300992547300000000000Transamerica Balanced                 000000000000000                                                
FPR001WSTVULTC800000002008022701069149501069149500000000000Transamerica Convertible Securities   000000000000000                                                
FPR001WSTVUTAG800000002008022701008621801008621800000000000Transamerica Equity                   000000000000000                                                
FPR001WSTVULTS800000002008022701054071801054071800000000000Transamerica Growth Opportunities     000000000000000                                                
FPR001WSTVUTSM800000002008022701159351001159351000000000000Transamerica Small/Mid Cap Value      000000000000000                                                
FPR001WSTVUTUS800000002008022701025190501025190500000000000Transamerica U.S. Government Securitie000000000000000                                                
FPR001WSTVUA1PR00000002008022701000000001000000000000000000Access VP High Yield                  000000000000000                                                
FPR001WSTVUB1PR00000002008022701000000001000000000000000000ProFund VP Europe 30                  000000000000000                                                
FPR001WSTVUC1PR00000002008022701000000001000000000000000000ProFund VP Oil & Gas                  000000000000000                                                
FPR001WSTVUD1PR00000002008022701000000001000000000000000000ProFund VP UltraSmall-Cap             000000000000000                                                
FPR001WSTVUE1PR00000002008022701000000001000000000000000000ProFund VP Utilities                  000000000000000                                                
FPR001WSTVUF1PR00000002008022701000000001000000000000000000ProFund VP Consumer Services          000000000000000                                                
FPR001WSTVUG1PR00000002008022701000000001000000000000000000ProFund VP Pharmaceuticals            000000000000000                                                
FPR001WSTVUH1PR00000002008022701000000001000000000000000000ProFund VP Small-Cap Value            000000000000000                                                
FPR001WSTVUI1PR00000002008022701000000001000000000000000000ProFund VP Falling US Dollar          000000000000000                                                
FPR001WSTVUJ1PR00000002008022701000000001000000000000000000ProFund VP Emerging Markets           000000000000000                                                
FPR001WSTVUK1PR00000002008022701000000001000000000000000000ProFund VP International              000000000000000                                                
FPR001WSTVUL1PR00000002008022701000000001000000000000000000ProFund VP Asia 30                    000000000000000                                                
FPR001WSTVUM1PR00000002008022701000000001000000000000000000ProFund VP Japan                      000000000000000                                                
FPR001WSTVUN1PR00000002008022701000000001000000000000000000ProFund VP Short NASDAQ-100           000000000000000                                                
FPR001WSTVUO1PR00000002008022701000000001000000000000000000ProFund VP U.S. Government Plus       000000000000000                                                
FPR001WSTVUP1PR00000002008022701000000001000000000000000000ProFund VP Basic Materials            000000000000000                                                
FPR001WSTVUQ1PR00000002008022701000000001000000000000000000ProFund VP Financials                 000000000000000                                                
FPR001WSTVUR1PR00000002008022701000000001000000000000000000ProFund VP Precious Metals            000000000000000                                                
FPR001WSTVUS1PR00000002008022701000000001000000000000000000ProFund VP Telecommunications         000000000000000                                                
FPR001WSTVUT1PR00000002008022701000000001000000000000000000ProFund VP Mid-Cap                    000000000000000                                                
FPR001WSTVUU1PR00000002008022701000000001000000000000000000ProFund VP Short Emerging Markets     000000000000000                                                
FPR001WSTVUV1PR00000002008022701000000001000000000000000000ProFund VP Short International        000000000000000                                                
FPR001WSTVUA2PR00000002008022701000000001000000000000000000Access VP High Yield                  000000000000000                                                
FPR001WSTVUB2PR00000002008022701000000001000000000000000000ProFund VP Europe 30                  000000000000000                                                
FPR001WSTVUC2PR00000002008022701000000001000000000000000000ProFund VP Oil & Gas                  000000000000000                                                
FPR001WSTVUD2PR00000002008022701000000001000000000000000000ProFund VP UltraSmall-Cap             000000000000000                                                
FPR001WSTVUE2PR00000002008022701000000001000000000000000000ProFund VP Utilities                  000000000000000                                                
FPR001WSTVUF2PR00000002008022701000000001000000000000000000ProFund VP Consumer Services          000000000000000                                                
FPR001WSTVUG2PR00000002008022701000000001000000000000000000ProFund VP Pharmaceuticals            000000000000000                                                
FPR001WSTVUH2PR00000002008022701000000001000000000000000000ProFund VP Small-Cap Value            000000000000000                                                
FPR001WSTVUI2PR00000002008022701000000001000000000000000000ProFund VP Falling US Dollar          000000000000000                                                
FPR001WSTVUJ2PR00000002008022701000000001000000000000000000ProFund VP Emerging Markets           000000000000000                                                
FPR001WSTVUK2PR00000002008022701000000001000000000000000000ProFund VP International              000000000000000                                                
FPR001WSTVUL2PR00000002008022701000000001000000000000000000ProFund VP Asia 30                    000000000000000                                                
FPR001WSTVUM2PR00000002008022701000000001000000000000000000ProFund VP Japan                      000000000000000                                                
FPR001WSTVUN2PR00000002008022701000000001000000000000000000ProFund VP Short NASDAQ-100           000000000000000                                                
FPR001WSTVUO2PR00000002008022701000000001000000000000000000ProFund VP U.S. Government Plus       000000000000000                                                
FPR001WSTVUP2PR00000002008022701000000001000000000000000000ProFund VP Basic Materials            000000000000000                                                
FPR001WSTVUQ2PR00000002008022701000000001000000000000000000ProFund VP Financials                 000000000000000                                                
FPR001WSTVUR2PR00000002008022701000000001000000000000000000ProFund VP Precious Metals            000000000000000                                                
FPR001WSTVUS2PR00000002008022701000000001000000000000000000ProFund VP Telecommunications         000000000000000                                                
FPR001WSTVUT2PR00000002008022701000000001000000000000000000ProFund VP Mid-Cap                    000000000000000                                                
FPR001WSTVUU2PR00000002008022701000000001000000000000000000ProFund VP Short Emerging Markets     000000000000000                                                
FPR001WSTVUV2PR00000002008022701000000001000000000000000000ProFund VP Short International        000000000000000                                                
FPR001WSTVUA5PR00000002008022701000000001000000000000000000Access VP High Yield                  000000000000000                                                
FPR001WSTVUB5PR00000002008022701000000001000000000000000000ProFund VP Europe 30                  000000000000000                                                
FPR001WSTVUC5PR00000002008022701000000001000000000000000000ProFund VP Oil & Gas                  000000000000000                                                
FPR001WSTVUD5PR00000002008022701000000001000000000000000000ProFund VP UltraSmall-Cap             000000000000000                                                
FPR001WSTVUE5PR00000002008022701000000001000000000000000000ProFund VP Utilities                  000000000000000                                                
FPR001WSTVUF5PR00000002008022701000000001000000000000000000ProFund VP Consumer Services          000000000000000                                                
FPR001WSTVUG5PR00000002008022701000000001000000000000000000ProFund VP Pharmaceuticals            000000000000000                                                
FPR001WSTVUH5PR00000002008022701000000001000000000000000000ProFund VP Small-Cap Value            000000000000000                                                
FPR001WSTVUI5PR00000002008022701000000001000000000000000000ProFund VP Falling US Dollar          000000000000000                                                
FPR001WSTVUJ5PR00000002008022701000000001000000000000000000ProFund VP Emerging Markets           000000000000000                                                
FPR001WSTVUK5PR00000002008022701000000001000000000000000000ProFund VP International              000000000000000                                                
FPR001WSTVUL5PR00000002008022701000000001000000000000000000ProFund VP Asia 30                    000000000000000                                                
FPR001WSTVUM5PR00000002008022701000000001000000000000000000ProFund VP Japan                      000000000000000                                                
FPR001WSTVUN5PR00000002008022701000000001000000000000000000ProFund VP Short NASDAQ-100           000000000000000                                                
FPR001WSTVUO5PR00000002008022701000000001000000000000000000ProFund VP U.S. Government Plus       000000000000000                                                
FPR001WSTVUP5PR00000002008022701000000001000000000000000000ProFund VP Basic Materials            000000000000000                                                
FPR001WSTVUQ5PR00000002008022701000000001000000000000000000ProFund VP Financials                 000000000000000                                                
FPR001WSTVUR5PR00000002008022701000000001000000000000000000ProFund VP Precious Metals            000000000000000                                                
FPR001WSTVUS5PR00000002008022701000000001000000000000000000ProFund VP Telecommunications         000000000000000                                                
FPR001WSTVUT5PR00000002008022701000000001000000000000000000ProFund VP Mid-Cap                    000000000000000                                                
FPR001WSTVUU5PR00000002008022701000000001000000000000000000ProFund VP Short Emerging Markets     000000000000000                                                
FPR001WSTVUV5PR00000002008022701000000001000000000000000000ProFund VP Short International        000000000000000                                                
FPR001WSTVUMMM500000002008022701231669201231669200000000000Transamerica Money Market             000000000000000                                                
FPR001WSTVUBND500000002008022701547481401547481400000000000JPMorgan Core Bond                    000000000000000                                                
FPR001WSTVUGLO500000002008022701205679601205679600000000000Templeton Transamerica Global         000000000000000                                                
FPR001WSTVUEGR500000002008022701217480301217480300000000000Van Kampen Mid-Cap Growth             000000000000000                                                
FPR001WSTVUFGI500000002008022701986926701986926700000000000Federated Market Opportunity          000000000000000                                                
FPR001WSTVUAAL500000002008022701504677701504677700000000000Transamerica Value Balanced           000000000000000                                                
FPR001WSTVUVEQ500000002008022701751100801751100800000000000BlackRock Large Cap Value             000000000000000                                                
FPR001WSTVUSEI500000002008022701225723301225723300000000000MFS International Equity              000000000000000                                                
FPR001WSTVUTAV500000002008022703077667503077667500000000000Third Avenue Value                    000000000000000                                                
FPR001WSTVURES500000002008022703334928203334928200000000000Clarion Global Real Estate Securities 000000000000000                                                
FPR001WSTVUGSG500000002008022701152461301152461300000000000Marsico Growth                        000000000000000                                                
FPR001WSTVUGSS500000002008022701032966101032966100000000000Munder Net50                          000000000000000                                                
FPR001WSTVUPDG500000002008022701339842701339842700000000000T. Rowe Price Equity Income           000000000000000                                                
FPR001WSTVUPSC500000002008022701301780801301780800000000000T. Rowe Price Small Cap               000000000000000                                                
FPR001WSTVUSAP500000002008022701648424801648424800000000000Legg Mason Partners All Cap           000000000000000                                                
FPR001WSTVUDMC500000002008022701755691401755691400000000000JPMorgan Mid Cap Value                000000000000000                                                
FPR001WSTVUGCT500000002008022700393424100393424100000000000Transamerica Science & Technology     000000000000000                                                
FPR001WSTVUVIG500000002008022700877285400877285400000000000Fidelity VIP Growth Opportunities     000000000000000                                                
FPR001WSTVUVIC500000002008022701406928401406928400000000000Fidelity VIP Contrafund               000000000000000                                                
FPR001WSTVUFEI500000002008022701355437701355437700000000000Fidelity VIP Equity-Income            000000000000000                                                
FPR001WSTVULCA500000002008022701404942601404942600000000000Asset Allocation - Conservative       000000000000000                                                
FPR001WSTVULMA500000002008022701460728401460728400000000000Asset Allocation - Moderate           000000000000000                                                
FPR001WSTVUMAA500000002008022701507773101507773100000000000Asset Allocation - Moderate Growth    000000000000000                                                
FPR001WSTVULAA500000002008022701532343001532343000000000000Asset Allocation - Growth             000000000000000                                                
FPR001WSTVULPT500000002008022701304586001304586000000000000PIMCO Total Return                    000000000000000                                                
FPR001WSTVULJB500000002008022701396948001396948000000000000Transamerica Balanced                 000000000000000                                                
FPR001WSTVULTC500000002008022701586251301586251300000000000Transamerica Convertible Securities   000000000000000                                                
FPR001WSTVUTAG500000002008022701632988401632988400000000000Transamerica Equity                   000000000000000                                                
FPR001WSTVULTS500000002008022701560099601560099600000000000Transamerica Growth Opportunities     000000000000000                                                
FPR001WSTVUCGV500000002008022701350771201350771200000000000Capital Guardian Value                000000000000000                                                
FPR001WSTVUTUS500000002008022701205541801205541800000000000Transamerica U.S. Government Securitie000000000000000                                                
FPR001WSTVUEEI500000002008022701306624701306624700000000000JPMorgan Enhanced Index               000000000000000                                                
FPR001WSTVUGUS500000002008022701284127401284127400000000000Capital Guardian US Equity            000000000000000                                                
FPR001WSTVUMFS500000002008022701292918401292918400000000000MFS High Yield                        000000000000000                                                
FPR001WSTVUVIP500000002008022701276428601276428600000000000Fidelity VIP Index 500                000000000000000                                                
FPR001WSTVUTSM500000002008022701812942401812942400000000000Transamerica Small/Mid Cap Value      000000000000000                                                
FPR001WSTVULAA600000002008022701435510601435510600000000000Asset Allocation - Growth             000000000000000                                                
FPR001WSTVUBND600000002008022701129161801129161800000000000JPMorgan Core Bond                    000000000000000                                                
FPR001WSTVUCGV600000002008022701238102401238102400000000000Capital Guardian Value                000000000000000                                                
FPR001WSTVURES600000002008022701605412001605412000000000000Clarion Global Real Estate Securities 000000000000000                                                
FPR001WSTVULCA600000002008022701249177101249177100000000000Asset Allocation - Conservative       000000000000000                                                
FPR001WSTVUEGR600000002008022701447266601447266600000000000Van Kampen Mid-Cap Growth             000000000000000                                                
FPR001WSTVUFGI600000002008022701111430101111430100000000000Federated Market Opportunity          000000000000000                                                
FPR001WSTVUGCT600000002008022701154080901154080900000000000Transamerica Science & Technology     000000000000000                                                
FPR001WSTVUEEI600000002008022701253199801253199800000000000JPMorgan Enhanced Index               000000000000000                                                
FPR001WSTVUDMC600000002008022701361407501361407500000000000JPMorgan Mid Cap Value                000000000000000                                                
FPR001WSTVUGSG600000002008022701351404101351404100000000000Marsico Growth                        000000000000000                                                
FPR001WSTVUMFS600000002008022701131259401131259400000000000MFS High Yield                        000000000000000                                                
FPR001WSTVUMMM600000002008022701113589601113589600000000000Transamerica Money Market             000000000000000                                                
FPR001WSTVUGSS600000002008022701251035801251035800000000000Munder Net50                          000000000000000                                                
FPR001WSTVUMAA600000002008022701381788301381788300000000000Asset Allocation - Moderate Growth    000000000000000                                                
FPR001WSTVULMA600000002008022701318454301318454300000000000Asset Allocation - Moderate           000000000000000                                                
FPR001WSTVUVEQ600000002008022701486776701486776700000000000BlackRock Large Cap Value             000000000000000                                                
FPR001WSTVULPT600000002008022701158695401158695400000000000PIMCO Total Return                    000000000000000                                                
FPR001WSTVUSAP600000002008022701291671701291671700000000000Legg Mason Partners All Cap           000000000000000                                                
FPR001WSTVULTC600000002008022701386519301386519300000000000Transamerica Convertible Securities   000000000000000                                                
FPR001WSTVUTAG600000002008022701444198801444198800000000000Transamerica Equity                   000000000000000                                                
FPR001WSTVULTS600000002008022701433711401433711400000000000Transamerica Growth Opportunities     000000000000000                                                
FPR001WSTVUTAV600000002008022701484032401484032400000000000Third Avenue Value                    000000000000000                                                
FPR001WSTVUGLO600000002008022701446491801446491800000000000Templeton Transamerica Global         000000000000000                                                
FPR001WSTVULJB600000002008022701294740801294740800000000000Transamerica Balanced                 000000000000000                                                
FPR001WSTVUPDG600000002008022701313984801313984800000000000T. Rowe Price Equity Income           000000000000000                                                
FPR001WSTVUPSC600000002008022701295042501295042500000000000T. Rowe Price Small Cap               000000000000000                                                
FPR001WSTVUTSM600000002008022701783434001783434000000000000Transamerica Small/Mid Cap Value      000000000000000                                                
FPR001WSTVUTUS600000002008022701108137101108137100000000000Transamerica U.S. Government Securitie000000000000000                                                
FPR001WSTVUAAL600000002008022701312194401312194400000000000Transamerica Value Balanced           000000000000000                                                
FPR001WSTVUVIP600000002008022701273378101273378100000000000Fidelity VIP Index 500                000000000000000                                                
FPR001WSTVUIMG500000002008022701078066901078066900000000000International Moderate Growth         000000000000000                                                
FPR001WSTVUIMG600000002008022701081000501081000500000000000International Moderate Growth         000000000000000                                                
FPR001WSTVUPRB500000002008022701103660801103660800000000000Profund VP Bull                       000000000000000                                                
FPR001WSTVUPRO500000002008022701148431301148431300000000000ProFund VP NASDAQ-100                 000000000000000                                                
FPR001WSTVUPSM500000002008022701021586201021586200000000000Profund VP Small-Cap                  000000000000000                                                
FPR001WSTVUPSH500000002008022700970271800970271800000000000Profund VP Short Small-Cap            000000000000000                                                
FPR001WSTVUPRM500000002008022701049103801049103800000000000Profund VP Money Market               000000000000000                                                
FPR001WSTVUPRB600000002008022701106464301106464300000000000Profund VP Bull                       000000000000000                                                
FPR001WSTVUPRO600000002008022701151347301151347300000000000ProFund VP NASDAQ-100                 000000000000000                                                
FPR001WSTVUPSM600000002008022701024180901024180900000000000Profund VP Small-Cap                  000000000000000                                                
FPR001WSTVUPSH600000002008022700972737100972737100000000000Profund VP Short Small-Cap            000000000000000                                                
FPR001WSTVUPRM600000002008022701051752401051752400000000000Profund VP Money Market               000000000000000                                                
FPR001WSTVUA3PR00000002008022701000000001000000000000000000Access VP High Yield                  000000000000000                                                
FPR001WSTVUB3PR00000002008022701000000001000000000000000000ProFund VP Europe 30                  000000000000000                                                
FPR001WSTVUC3PR00000002008022701000000001000000000000000000ProFund VP Oil & Gas                  000000000000000                                                
FPR001WSTVUD3PR00000002008022701000000001000000000000000000ProFund VP UltraSmall-Cap             000000000000000                                                
FPR001WSTVUE3PR00000002008022701000000001000000000000000000ProFund VP Utilities                  000000000000000                                                
FPR001WSTVUF3PR00000002008022701000000001000000000000000000ProFund VP Consumer Services          000000000000000                                                
FPR001WSTVUG3PR00000002008022701000000001000000000000000000ProFund VP Pharmaceuticals            000000000000000                                                
FPR001WSTVUH3PR00000002008022701000000001000000000000000000ProFund VP Small-Cap Value            000000000000000                                                
FPR001WSTVUI3PR00000002008022701000000001000000000000000000ProFund VP Falling US Dollar          000000000000000                                                
FPR001WSTVUJ3PR00000002008022701000000001000000000000000000ProFund VP Emerging Markets           000000000000000                                                
FPR001WSTVUK3PR00000002008022701000000001000000000000000000ProFund VP International              000000000000000                                                
FPR001WSTVUL3PR00000002008022701000000001000000000000000000ProFund VP Asia 30                    000000000000000                                                
FPR001WSTVUM3PR00000002008022701000000001000000000000000000ProFund VP Japan                      000000000000000                                                
FPR001WSTVUN3PR00000002008022701000000001000000000000000000ProFund VP Short NASDAQ-100           000000000000000                                                
FPR001WSTVUO3PR00000002008022701000000001000000000000000000ProFund VP U.S. Government Plus       000000000000000                                                
FPR001WSTVUP3PR00000002008022701000000001000000000000000000ProFund VP Basic Materials            000000000000000                                                
FPR001WSTVUQ3PR00000002008022701000000001000000000000000000ProFund VP Financials                 000000000000000                                                
FPR001WSTVUR3PR00000002008022701000000001000000000000000000ProFund VP Precious Metals            000000000000000                                                
FPR001WSTVUS3PR00000002008022701000000001000000000000000000ProFund VP Telecommunications         000000000000000                                                
FPR001WSTVUT3PR00000002008022701000000001000000000000000000ProFund VP Mid-Cap                    000000000000000                                                
FPR001WSTVUU3PR00000002008022701000000001000000000000000000ProFund VP Short Emerging Markets     000000000000000                                                
FPR001WSTVUV3PR00000002008022701000000001000000000000000000ProFund VP Short International        000000000000000                                                
FPR001WSTVUA4PR00000002008022701000000001000000000000000000Access VP High Yield                  000000000000000                                                
FPR001WSTVUB4PR00000002008022701000000001000000000000000000ProFund VP Europe 30                  000000000000000                                                
FPR001WSTVUC4PR00000002008022701000000001000000000000000000ProFund VP Oil & Gas                  000000000000000                                                
FPR001WSTVUD4PR00000002008022701000000001000000000000000000ProFund VP UltraSmall-Cap             000000000000000                                                
FPR001WSTVUE4PR00000002008022701000000001000000000000000000ProFund VP Utilities                  000000000000000                                                
FPR001WSTVUF4PR00000002008022701000000001000000000000000000ProFund VP Consumer Services          000000000000000                                                
FPR001WSTVUG4PR00000002008022701000000001000000000000000000ProFund VP Pharmaceuticals            000000000000000                                                
FPR001WSTVUH4PR00000002008022701000000001000000000000000000ProFund VP Small-Cap Value            000000000000000                                                
FPR001WSTVUI4PR00000002008022701000000001000000000000000000ProFund VP Falling US Dollar          000000000000000                                                
FPR001WSTVUJ4PR00000002008022701000000001000000000000000000ProFund VP Emerging Markets           000000000000000                                                
FPR001WSTVUK4PR00000002008022701000000001000000000000000000ProFund VP International              000000000000000                                                
FPR001WSTVUL4PR00000002008022701000000001000000000000000000ProFund VP Asia 30                    000000000000000                                                
FPR001WSTVUM4PR00000002008022701000000001000000000000000000ProFund VP Japan                      000000000000000                                                
FPR001WSTVUN4PR00000002008022701000000001000000000000000000ProFund VP Short NASDAQ-100           000000000000000                                                
FPR001WSTVUO4PR00000002008022701000000001000000000000000000ProFund VP U.S. Government Plus       000000000000000                                                
FPR001WSTVUP4PR00000002008022701000000001000000000000000000ProFund VP Basic Materials            000000000000000                                                
FPR001WSTVUQ4PR00000002008022701000000001000000000000000000ProFund VP Financials                 000000000000000                                                
FPR001WSTVUR4PR00000002008022701000000001000000000000000000ProFund VP Precious Metals            000000000000000                                                
FPR001WSTVUS4PR00000002008022701000000001000000000000000000ProFund VP Telecommunications         000000000000000                                                
FPR001WSTVUT4PR00000002008022701000000001000000000000000000ProFund VP Mid-Cap                    000000000000000                                                
FPR001WSTVUU4PR00000002008022701000000001000000000000000000ProFund VP Short Emerging Markets     000000000000000                                                
FPR001WSTVUV4PR00000002008022701000000001000000000000000000ProFund VP Short International        000000000000000                                                
FPR001WSTVUMMM700000002008022701187641201187641200000000000Transamerica Money Market             000000000000000                                                
FPR001WSTVUBND700000002008022701516503401516503400000000000JPMorgan Core Bond                    000000000000000                                                
FPR001WSTVUEGR700000002008022700617719200617719200000000000Van Kampen Mid-Cap Growth             000000000000000                                                
FPR001WSTVUFGI700000002008022702090178002090178000000000000Federated Market Opportunity          000000000000000                                                
FPR001WSTVUAAL700000002008022701532800801532800800000000000Transamerica Value Balanced           000000000000000                                                
FPR001WSTVUVEQ700000002008022701798458601798458600000000000BlackRock Large Cap Value             000000000000000                                                
FPR001WSTVUSEI700000002008022701040408401040408400000000000MFS International Equity              000000000000000                                                
FPR001WSTVUTAV700000002008022702223863402223863400000000000Third Avenue Value                    000000000000000                                                
FPR001WSTVURES700000002008022703308259603308259600000000000Clarion Global Real Estate Securities 000000000000000                                                
FPR001WSTVUGSG700000002008022700981432500981432500000000000Marsico Growth                        000000000000000                                                
FPR001WSTVUGSS700000002008022700907066400907066400000000000Munder Net50                          000000000000000                                                
FPR001WSTVUPDG700000002008022701425086201425086200000000000T. Rowe Price Equity Income           000000000000000                                                
FPR001WSTVUPSC700000002008022700982224800982224800000000000T. Rowe Price Small Cap               000000000000000                                                
FPR001WSTVUSAP700000002008022701345656901345656900000000000Legg Mason Partners All Cap           000000000000000                                                
FPR001WSTVUDMC700000002008022701552168101552168100000000000JPMorgan Mid Cap Value                000000000000000                                                
FPR001WSTVUGCT700000002008022700435760200435760200000000000Transamerica Science & Technology     000000000000000                                                
FPR001WSTVUTAG700000002008022701016544701016544700000000000Transamerica Equity                   000000000000000                                                
FPR001WSTVUVIG700000002008022700909125100909125100000000000Fidelity VIP Growth Opportunities     000000000000000                                                
FPR001WSTVUVIC700000002008022701445211301445211300000000000Fidelity VIP Contrafund               000000000000000                                                
FPR001WSTVUFEI700000002008022701427137401427137400000000000Fidelity VIP Equity-Income            000000000000000                                                
FPR001WSTVUGLO700000002008022700977478000977478000000000000Templeton Transamerica Global         000000000000000                                                
FPR001WSTVULCA700000002008022701404931401404931400000000000Asset Allocation - Conservative       000000000000000                                                
FPR001WSTVULMA700000002008022701460726001460726000000000000Asset Allocation - Moderate           000000000000000                                                
FPR001WSTVUMAA700000002008022701507773101507773100000000000Asset Allocation - Moderate Growth    000000000000000                                                
FPR001WSTVULAA700000002008022701532343001532343000000000000Asset Allocation - Growth             000000000000000                                                
FPR001WSTVULPT700000002008022701304596701304596700000000000PIMCO Total Return                    000000000000000                                                
FPR001WSTVULJB700000002008022701396949401396949400000000000Transamerica Balanced                 000000000000000                                                
FPR001WSTVULTC700000002008022701586251401586251400000000000Transamerica Convertible Securities   000000000000000                                                
FPR001WSTVULTS700000002008022701560100201560100200000000000Transamerica Growth Opportunities     000000000000000                                                
FPR001WSTVUCGV700000002008022701350755801350755800000000000Capital Guardian Value                000000000000000                                                
FPR001WSTVUTUS700000002008022701205530301205530300000000000Transamerica U.S. Government Securitie000000000000000                                                
FPR001WSTVUEEI700000002008022701306626501306626500000000000JPMorgan Enhanced Index               000000000000000                                                
FPR001WSTVUGUS700000002008022701284149301284149300000000000Capital Guardian US Equity            000000000000000                                                
FPR001WSTVUIMG700000002008022701078066901078066900000000000International Moderate Growth         000000000000000                                                
RTR001PRICE REFRESHER000000368                                                                                                                                  
